{
  "contractName": "imnotArtAllAccess",
  "abi": [
    {
      "inputs": [],
      "stateMutability": "nonpayable",
      "type": "constructor"
    },
    {
      "anonymous": false,
      "inputs": [
        {
          "indexed": true,
          "internalType": "address",
          "name": "owner",
          "type": "address"
        },
        {
          "indexed": true,
          "internalType": "address",
          "name": "approved",
          "type": "address"
        },
        {
          "indexed": true,
          "internalType": "uint256",
          "name": "tokenId",
          "type": "uint256"
        }
      ],
      "name": "Approval",
      "type": "event"
    },
    {
      "anonymous": false,
      "inputs": [
        {
          "indexed": true,
          "internalType": "address",
          "name": "owner",
          "type": "address"
        },
        {
          "indexed": true,
          "internalType": "address",
          "name": "operator",
          "type": "address"
        },
        {
          "indexed": false,
          "internalType": "bool",
          "name": "approved",
          "type": "bool"
        }
      ],
      "name": "ApprovalForAll",
      "type": "event"
    },
    {
      "anonymous": false,
      "inputs": [
        {
          "indexed": true,
          "internalType": "address",
          "name": "previousOwner",
          "type": "address"
        },
        {
          "indexed": true,
          "internalType": "address",
          "name": "newOwner",
          "type": "address"
        }
      ],
      "name": "OwnershipTransferred",
      "type": "event"
    },
    {
      "anonymous": false,
      "inputs": [
        {
          "indexed": false,
          "internalType": "string",
          "name": "_value",
          "type": "string"
        },
        {
          "indexed": true,
          "internalType": "uint256",
          "name": "_id",
          "type": "uint256"
        }
      ],
      "name": "PermanentURI",
      "type": "event"
    },
    {
      "anonymous": false,
      "inputs": [
        {
          "indexed": false,
          "internalType": "uint256",
          "name": "tokenId",
          "type": "uint256"
        },
        {
          "components": [
            {
              "internalType": "address payable",
              "name": "account",
              "type": "address"
            },
            {
              "internalType": "uint96",
              "name": "value",
              "type": "uint96"
            }
          ],
          "indexed": false,
          "internalType": "struct LibPart.Part[]",
          "name": "royalties",
          "type": "tuple[]"
        }
      ],
      "name": "RoyaltiesSet",
      "type": "event"
    },
    {
      "anonymous": false,
      "inputs": [
        {
          "indexed": true,
          "internalType": "address",
          "name": "from",
          "type": "address"
        },
        {
          "indexed": true,
          "internalType": "address",
          "name": "to",
          "type": "address"
        },
        {
          "indexed": true,
          "internalType": "uint256",
          "name": "tokenId",
          "type": "uint256"
        }
      ],
      "name": "Transfer",
      "type": "event"
    },
    {
      "inputs": [],
      "name": "MAX_INVOCATIONS",
      "outputs": [
        {
          "internalType": "uint256",
          "name": "",
          "type": "uint256"
        }
      ],
      "stateMutability": "view",
      "type": "function"
    },
    {
      "inputs": [
        {
          "internalType": "address",
          "name": "to",
          "type": "address"
        },
        {
          "internalType": "uint256",
          "name": "tokenId",
          "type": "uint256"
        }
      ],
      "name": "approve",
      "outputs": [],
      "stateMutability": "nonpayable",
      "type": "function"
    },
    {
      "inputs": [
        {
          "internalType": "address",
          "name": "owner",
          "type": "address"
        }
      ],
      "name": "balanceOf",
      "outputs": [
        {
          "internalType": "uint256",
          "name": "",
          "type": "uint256"
        }
      ],
      "stateMutability": "view",
      "type": "function"
    },
    {
      "inputs": [
        {
          "internalType": "uint256",
          "name": "tokenId",
          "type": "uint256"
        }
      ],
      "name": "getApproved",
      "outputs": [
        {
          "internalType": "address",
          "name": "",
          "type": "address"
        }
      ],
      "stateMutability": "view",
      "type": "function"
    },
    {
      "inputs": [],
      "name": "imnotArtPayoutAddress",
      "outputs": [
        {
          "internalType": "address",
          "name": "",
          "type": "address"
        }
      ],
      "stateMutability": "view",
      "type": "function"
    },
    {
      "inputs": [],
      "name": "imnotArtSecondarySaleBps",
      "outputs": [
        {
          "internalType": "uint16",
          "name": "",
          "type": "uint16"
        }
      ],
      "stateMutability": "view",
      "type": "function"
    },
    {
      "inputs": [
        {
          "internalType": "address",
          "name": "owner",
          "type": "address"
        },
        {
          "internalType": "address",
          "name": "operator",
          "type": "address"
        }
      ],
      "name": "isApprovedForAll",
      "outputs": [
        {
          "internalType": "bool",
          "name": "",
          "type": "bool"
        }
      ],
      "stateMutability": "view",
      "type": "function"
    },
    {
      "inputs": [],
      "name": "name",
      "outputs": [
        {
          "internalType": "string",
          "name": "",
          "type": "string"
        }
      ],
      "stateMutability": "view",
      "type": "function"
    },
    {
      "inputs": [],
      "name": "nextTokenId",
      "outputs": [
        {
          "internalType": "uint256",
          "name": "",
          "type": "uint256"
        }
      ],
      "stateMutability": "view",
      "type": "function"
    },
    {
      "inputs": [],
      "name": "owner",
      "outputs": [
        {
          "internalType": "address",
          "name": "",
          "type": "address"
        }
      ],
      "stateMutability": "view",
      "type": "function"
    },
    {
      "inputs": [
        {
          "internalType": "uint256",
          "name": "tokenId",
          "type": "uint256"
        }
      ],
      "name": "ownerOf",
      "outputs": [
        {
          "internalType": "address",
          "name": "",
          "type": "address"
        }
      ],
      "stateMutability": "view",
      "type": "function"
    },
    {
      "inputs": [],
      "name": "renounceOwnership",
      "outputs": [],
      "stateMutability": "nonpayable",
      "type": "function"
    },
    {
      "inputs": [
        {
          "internalType": "address",
          "name": "from",
          "type": "address"
        },
        {
          "internalType": "address",
          "name": "to",
          "type": "address"
        },
        {
          "internalType": "uint256",
          "name": "tokenId",
          "type": "uint256"
        }
      ],
      "name": "safeTransferFrom",
      "outputs": [],
      "stateMutability": "nonpayable",
      "type": "function"
    },
    {
      "inputs": [
        {
          "internalType": "address",
          "name": "from",
          "type": "address"
        },
        {
          "internalType": "address",
          "name": "to",
          "type": "address"
        },
        {
          "internalType": "uint256",
          "name": "tokenId",
          "type": "uint256"
        },
        {
          "internalType": "bytes",
          "name": "_data",
          "type": "bytes"
        }
      ],
      "name": "safeTransferFrom",
      "outputs": [],
      "stateMutability": "nonpayable",
      "type": "function"
    },
    {
      "inputs": [
        {
          "internalType": "address",
          "name": "operator",
          "type": "address"
        },
        {
          "internalType": "bool",
          "name": "approved",
          "type": "bool"
        }
      ],
      "name": "setApprovalForAll",
      "outputs": [],
      "stateMutability": "nonpayable",
      "type": "function"
    },
    {
      "inputs": [],
      "name": "symbol",
      "outputs": [
        {
          "internalType": "string",
          "name": "",
          "type": "string"
        }
      ],
      "stateMutability": "view",
      "type": "function"
    },
    {
      "inputs": [
        {
          "internalType": "uint256",
          "name": "index",
          "type": "uint256"
        }
      ],
      "name": "tokenByIndex",
      "outputs": [
        {
          "internalType": "uint256",
          "name": "",
          "type": "uint256"
        }
      ],
      "stateMutability": "view",
      "type": "function"
    },
    {
      "inputs": [
        {
          "internalType": "address",
          "name": "owner",
          "type": "address"
        },
        {
          "internalType": "uint256",
          "name": "index",
          "type": "uint256"
        }
      ],
      "name": "tokenOfOwnerByIndex",
      "outputs": [
        {
          "internalType": "uint256",
          "name": "",
          "type": "uint256"
        }
      ],
      "stateMutability": "view",
      "type": "function"
    },
    {
      "inputs": [],
      "name": "totalSupply",
      "outputs": [
        {
          "internalType": "uint256",
          "name": "",
          "type": "uint256"
        }
      ],
      "stateMutability": "view",
      "type": "function"
    },
    {
      "inputs": [
        {
          "internalType": "address",
          "name": "from",
          "type": "address"
        },
        {
          "internalType": "address",
          "name": "to",
          "type": "address"
        },
        {
          "internalType": "uint256",
          "name": "tokenId",
          "type": "uint256"
        }
      ],
      "name": "transferFrom",
      "outputs": [],
      "stateMutability": "nonpayable",
      "type": "function"
    },
    {
      "inputs": [
        {
          "internalType": "address",
          "name": "newOwner",
          "type": "address"
        }
      ],
      "name": "transferOwnership",
      "outputs": [],
      "stateMutability": "nonpayable",
      "type": "function"
    },
    {
      "inputs": [
        {
          "internalType": "bytes4",
          "name": "interfaceId",
          "type": "bytes4"
        }
      ],
      "name": "supportsInterface",
      "outputs": [
        {
          "internalType": "bool",
          "name": "",
          "type": "bool"
        }
      ],
      "stateMutability": "view",
      "type": "function"
    },
    {
      "inputs": [
        {
          "internalType": "address",
          "name": "contractAddress",
          "type": "address"
        },
        {
          "internalType": "uint256",
          "name": "tokenId",
          "type": "uint256"
        }
      ],
      "name": "mint",
      "outputs": [
        {
          "internalType": "uint256",
          "name": "accessPassId",
          "type": "uint256"
        }
      ],
      "stateMutability": "nonpayable",
      "type": "function"
    },
    {
      "inputs": [
        {
          "internalType": "address",
          "name": "contractAddress",
          "type": "address"
        },
        {
          "internalType": "uint256",
          "name": "tokenId",
          "type": "uint256"
        }
      ],
      "name": "isTokenIdValidForContract",
      "outputs": [
        {
          "internalType": "bool",
          "name": "",
          "type": "bool"
        }
      ],
      "stateMutability": "view",
      "type": "function"
    },
    {
      "inputs": [
        {
          "internalType": "address",
          "name": "contractAddress",
          "type": "address"
        },
        {
          "internalType": "uint256",
          "name": "tokenId",
          "type": "uint256"
        }
      ],
      "name": "hasTokenByClaimed",
      "outputs": [
        {
          "internalType": "bool",
          "name": "",
          "type": "bool"
        }
      ],
      "stateMutability": "view",
      "type": "function"
    },
    {
      "inputs": [
        {
          "internalType": "address",
          "name": "validContractAddress",
          "type": "address"
        }
      ],
      "name": "addValidContractAddress",
      "outputs": [],
      "stateMutability": "nonpayable",
      "type": "function"
    },
    {
      "inputs": [
        {
          "internalType": "address",
          "name": "contractAddress",
          "type": "address"
        },
        {
          "internalType": "uint256",
          "name": "tokenId",
          "type": "uint256"
        }
      ],
      "name": "addValidTokenId",
      "outputs": [],
      "stateMutability": "nonpayable",
      "type": "function"
    },
    {
      "inputs": [
        {
          "internalType": "string",
          "name": "newContractUri",
          "type": "string"
        }
      ],
      "name": "updateContractUri",
      "outputs": [],
      "stateMutability": "nonpayable",
      "type": "function"
    },
    {
      "inputs": [
        {
          "internalType": "uint256",
          "name": "tokenId",
          "type": "uint256"
        }
      ],
      "name": "tokenURI",
      "outputs": [
        {
          "internalType": "string",
          "name": "",
          "type": "string"
        }
      ],
      "stateMutability": "view",
      "type": "function"
    },
    {
      "inputs": [],
      "name": "contractURI",
      "outputs": [
        {
          "internalType": "string",
          "name": "",
          "type": "string"
        }
      ],
      "stateMutability": "view",
      "type": "function"
    },
    {
      "inputs": [
        {
          "internalType": "uint256",
          "name": "tokenId",
          "type": "uint256"
        }
      ],
      "name": "getRaribleV2Royalties",
      "outputs": [
        {
          "components": [
            {
              "internalType": "address payable",
              "name": "account",
              "type": "address"
            },
            {
              "internalType": "uint96",
              "name": "value",
              "type": "uint96"
            }
          ],
          "internalType": "struct LibPart.Part[]",
          "name": "",
          "type": "tuple[]"
        }
      ],
      "stateMutability": "view",
      "type": "function"
    },
    {
      "inputs": [
        {
          "internalType": "uint256",
          "name": "tokenId",
          "type": "uint256"
        },
        {
          "internalType": "uint256",
          "name": "salePrice",
          "type": "uint256"
        }
      ],
      "name": "royaltyInfo",
      "outputs": [
        {
          "internalType": "address",
          "name": "receiver",
          "type": "address"
        },
        {
          "internalType": "uint256",
          "name": "amount",
          "type": "uint256"
        }
      ],
      "stateMutability": "view",
      "type": "function"
    }
  ],
  "bytecode": "0x60806040526001600b553480156200001657600080fd5b506040518060400160405280601381526020017f696d6e6f7441727420416c6c20416363657373000000000000000000000000008152506040518060400160405280601181526020017f494d4e4f54415254414c4c414343455353000000000000000000000000000000815250620000af620000a0620000fd640100000000026401000000009004565b64010000000062000101810204565b8151620000c490600190602085019062000151565b508051620000da90600290602084019062000151565b5050336000908152600e60205260409020805460ff19166001179055506200024d565b3390565b60008054600160a060020a03838116600160a060020a0319831681178455604051919092169283917f8be0079c531659141344cd1fd0a4f28419497f9722a3daafe3b4186f6b6457e09190a35050565b8280546200015f90620001f7565b90600052602060002090601f016020900481019282620001835760008555620001ce565b82601f106200019e57805160ff1916838001178555620001ce565b82800160010185558215620001ce579182015b82811115620001ce578251825591602001919060010190620001b1565b50620001dc929150620001e0565b5090565b5b80821115620001dc5760008155600101620001e1565b6002810460018216806200020c57607f821691505b6020821081141562000247577f4e487b7100000000000000000000000000000000000000000000000000000000600052602260045260246000fd5b50919050565b6125e1806200025d6000396000f3fe608060405234801561001057600080fd5b506004361061020d576000357c010000000000000000000000000000000000000000000000000000000090048063715018a61161012c578063b88d4fde116100bf578063e8a3d4851161008e578063e8a3d48514610469578063e985e9c514610471578063ec9cc19d146104ad578063f2fde38b146104b557600080fd5b8063b88d4fde14610410578063c34a2a3a14610423578063c87b56dd14610436578063cad96cca1461044957600080fd5b806395d89b41116100fb57806395d89b41146103cf578063a22cb465146103d7578063a40e3a8d146103ea578063a6390ef1146103fd57600080fd5b8063715018a61461039a57806375794a3c146103a25780638da5cb5b146103ab5780639562ccf9146103bc57600080fd5b80633dd2fdff116101a45780634f6ccce7116101735780634f6ccce71461034e5780636352211e146103615780636924f4aa1461037457806370a082311461038757600080fd5b80633dd2fdff146102f957806340c10f191461031557806342842e0e1461032857806347c8ff5e1461033b57600080fd5b806318160ddd116101e057806318160ddd1461028f57806323b872dd146102a15780632a55205a146102b45780632f745c59146102e657600080fd5b806301ffc9a71461021257806306fdde031461023a578063081812fc1461024f578063095ea7b31461027a575b600080fd5b61022561022036600461218f565b6104c8565b60405190151581526020015b60405180910390f35b610242610610565b6040516102319190612333565b61026261025d36600461220d565b6106a2565b604051600160a060020a039091168152602001610231565b61028d610288366004612164565b610743565b005b6009545b604051908152602001610231565b61028d6102af366004612076565b61087b565b6102c76102c2366004612225565b6108af565b60408051600160a060020a039093168352602083019190915201610231565b6102936102f4366004612164565b61090c565b6103026101f481565b60405161ffff9091168152602001610231565b610293610323366004612164565b6109b7565b61028d610336366004612076565b610c95565b61028d6103493660046121c7565b610cb0565b61029361035c36600461220d565b610cf9565b61026261036f36600461220d565b610db1565b61028d610382366004612164565b610e3f565b610293610395366004612006565b610f0f565b61028d610fac565b610293600b5481565b600054600160a060020a0316610262565b6102256103ca366004612164565b611015565b61024261107e565b61028d6103e5366004612133565b61108d565b61028d6103f8366004612006565b611155565b61022561040b366004612164565b6111ab565b61028d61041e3660046120b6565b611215565b600c5461026290600160a060020a031681565b61024261044436600461220d565b61124a565b61045c61045736600461220d565b611315565b60405161023191906122cd565b6102426113d9565b61022561047f36600461203e565b600160a060020a03918216600090815260066020908152604080832093909416825291909152205460ff1690565b610293606381565b61028d6104c3366004612006565b6113e8565b6000600160e060020a031982167f01ffc9a700000000000000000000000000000000000000000000000000000000148061052b5750600160e060020a031982167fcad96cca00000000000000000000000000000000000000000000000000000000145b8061055f5750600160e060020a031982167f80ac58cd00000000000000000000000000000000000000000000000000000000145b806105935750600160e060020a031982167f5b5e139f00000000000000000000000000000000000000000000000000000000145b806105c75750600160e060020a031982167f780e9d6300000000000000000000000000000000000000000000000000000000145b806105fb5750600160e060020a031982167f2a55205a00000000000000000000000000000000000000000000000000000000145b8061060a575061060a826114d0565b92915050565b60606001805461061f90612516565b80601f016020809104026020016040519081016040528092919081815260200182805461064b90612516565b80156106985780601f1061066d57610100808354040283529160200191610698565b820191906000526020600020905b81548152906001019060200180831161067b57829003601f168201915b5050505050905090565b60006106ad8261150e565b6107275760405160e560020a62461bcd02815260206004820152602c60248201527f4552433732313a20617070726f76656420717565727920666f72206e6f6e657860448201527f697374656e7420746f6b656e000000000000000000000000000000000000000060648201526084015b60405180910390fd5b50600090815260056020526040902054600160a060020a031690565b600061074e82610db1565b905080600160a060020a031683600160a060020a031614156107db5760405160e560020a62461bcd02815260206004820152602160248201527f4552433732313a20617070726f76616c20746f2063757272656e74206f776e6560448201527f7200000000000000000000000000000000000000000000000000000000000000606482015260840161071e565b33600160a060020a03821614806107f757506107f7813361047f565b61086c5760405160e560020a62461bcd02815260206004820152603860248201527f4552433732313a20617070726f76652063616c6c6572206973206e6f74206f7760448201527f6e6572206e6f7220617070726f76656420666f7220616c6c0000000000000000606482015260840161071e565b610876838361152b565b505050565b61088533826115a6565b6108a45760405160e560020a62461bcd02815260040161071e90612411565b6108768383836116a4565b600080836108bc8161150e565b6108db5760405160e560020a62461bcd02815260040161071e9061246e565b60006108f46108ec866101f461188f565b6127106118a2565b600c54600160a060020a031697909650945050505050565b600061091783610f0f565b821061098e5760405160e560020a62461bcd02815260206004820152602b60248201527f455243373231456e756d657261626c653a206f776e657220696e646578206f7560448201527f74206f6620626f756e6473000000000000000000000000000000000000000000606482015260840161071e565b50600160a060020a03919091166000908152600760209081526040808320938352929052205490565b600160a060020a038216600090815260106020526040812054839060ff166109f45760405160e560020a62461bcd02815260040161071e906123a3565b600b54606390610a059060016118ae565b11610a7b5760405160e560020a62461bcd02815260206004820152602960248201527f546865726520617265206e6f20414c4c2041434345535320746f6b656e73207260448201527f656d61696e696e672e0000000000000000000000000000000000000000000000606482015260840161071e565b600160a060020a0384811660009081526012602090815260408083208784529091529020541615610b175760405160e560020a62461bcd02815260206004820152602960248201527f414c4c2041434345535320746f6b656e2068617320616c72656164792062656560448201527f6e206d696e7465642e0000000000000000000000000000000000000000000000606482015260840161071e565b6040517f6352211e0000000000000000000000000000000000000000000000000000000081526004810184905284903390600160a060020a03831690636352211e90602401602060405180830381600087803b158015610b7657600080fd5b505af1158015610b8a573d6000803e3d6000fd5b505050506040513d601f19601f82011682018060405250810190610bae9190612022565b600160a060020a031614610c2d5760405160e560020a62461bcd02815260206004820152603160248201527f596f7520617265206e6f7420656c696769626c6520746f206d696e7420616e2060448201527f414c4c2041434345535320746f6b656e2e000000000000000000000000000000606482015260840161071e565b600b549250610c3d8360016118ae565b600b55600160a060020a03851660009081526012602090815260408083208784529091529020805473ffffffffffffffffffffffffffffffffffffffff191633908117909155610c8d90846118ba565b505092915050565b61087683838360405180602001604052806000815250611215565b336000908152600e602052604090205460ff16610ce25760405160e560020a62461bcd02815260040161071e906123da565b8051610cf590600d906020840190611ef7565b5050565b6000610d0460095490565b8210610d7b5760405160e560020a62461bcd02815260206004820152602c60248201527f455243373231456e756d657261626c653a20676c6f62616c20696e646578206f60448201527f7574206f6620626f756e64730000000000000000000000000000000000000000606482015260840161071e565b60098281548110610d9f5760e060020a634e487b7102600052603260045260246000fd5b90600052602060002001549050919050565b600081815260036020526040812054600160a060020a03168061060a5760405160e560020a62461bcd02815260206004820152602960248201527f4552433732313a206f776e657220717565727920666f72206e6f6e657869737460448201527f656e7420746f6b656e0000000000000000000000000000000000000000000000606482015260840161071e565b336000908152600e602052604090205460ff16610e715760405160e560020a62461bcd02815260040161071e906123da565b600160a060020a038216600090815260106020526040902054829060ff16610eae5760405160e560020a62461bcd02815260040161071e906123a3565b600160a060020a038316600090815260116020908152604080832085845290915290205460ff1680610f0957600160a060020a03841660009081526011602090815260408083208684529091529020805460ff191660011790555b50505050565b6000600160a060020a038216610f905760405160e560020a62461bcd02815260206004820152602a60248201527f4552433732313a2062616c616e636520717565727920666f7220746865207a6560448201527f726f206164647265737300000000000000000000000000000000000000000000606482015260840161071e565b50600160a060020a031660009081526004602052604090205490565b600054600160a060020a031633146110095760405160e560020a62461bcd02815260206004820181905260248201527f4f776e61626c653a2063616c6c6572206973206e6f7420746865206f776e6572604482015260640161071e565b6110136000611a0c565b565b600160a060020a038216600090815260106020526040812054839060ff166110525760405160e560020a62461bcd02815260040161071e906123a3565b5050600160a060020a039182166000908152601260209081526040808320938352929052205416151590565b60606002805461061f90612516565b600160a060020a0382163314156110e95760405160e560020a62461bcd02815260206004820152601960248201527f4552433732313a20617070726f766520746f2063616c6c657200000000000000604482015260640161071e565b336000818152600660209081526040808320600160a060020a03871680855290835292819020805460ff191686151590811790915590519081529192917f17307eab39ab6107e8899845ad3d59bd9653f200f220920489ca2b5937696c31910160405180910390a35050565b336000908152600e602052604090205460ff166111875760405160e560020a62461bcd02815260040161071e906123da565b600160a060020a03166000908152601060205260409020805460ff19166001179055565b600160a060020a038216600090815260106020526040812054839060ff166111e85760405160e560020a62461bcd02815260040161071e906123a3565b5050600160a060020a03919091166000908152601160209081526040808320938352929052205460ff1690565b61121f33836115a6565b61123e5760405160e560020a62461bcd02815260040161071e90612411565b610f0984848484611a69565b6060816112568161150e565b6112755760405160e560020a62461bcd02815260040161071e9061246e565b6000838152600f60205260409020805461128e90612516565b80601f01602080910402602001604051908101604052809291908181526020018280546112ba90612516565b80156113075780601f106112dc57610100808354040283529160200191611307565b820191906000526020600020905b8154815290600101906020018083116112ea57829003601f168201915b505050505091505b50919050565b6060816113218161150e565b6113405760405160e560020a62461bcd02815260040161071e9061246e565b604080516001808252818301909252600091816020015b604080518082019091526000808252602082015281526020019060019003908161135757505060408051808201909152600c54600160a060020a031681526101f46020820152815191925090829060019081106113c75760e060020a634e487b7102600052603260045260246000fd5b60209081029190910101529392505050565b6060600d805461061f90612516565b600054600160a060020a031633146114455760405160e560020a62461bcd02815260206004820181905260248201527f4f776e61626c653a2063616c6c6572206973206e6f7420746865206f776e6572604482015260640161071e565b600160a060020a0381166114c45760405160e560020a62461bcd02815260206004820152602660248201527f4f776e61626c653a206e6577206f776e657220697320746865207a65726f206160448201527f6464726573730000000000000000000000000000000000000000000000000000606482015260840161071e565b6114cd81611a0c565b50565b6000600160e060020a031982167f780e9d6300000000000000000000000000000000000000000000000000000000148061060a575061060a82611a9f565b600090815260036020526040902054600160a060020a0316151590565b6000818152600560205260409020805473ffffffffffffffffffffffffffffffffffffffff1916600160a060020a038416908117909155819061156d82610db1565b600160a060020a03167f8c5be1e5ebec7d5bd14f71427d1e84f3dd0314c0f7b2291e5b200ac8c7c3b92560405160405180910390a45050565b60006115b18261150e565b6116265760405160e560020a62461bcd02815260206004820152602c60248201527f4552433732313a206f70657261746f7220717565727920666f72206e6f6e657860448201527f697374656e7420746f6b656e0000000000000000000000000000000000000000606482015260840161071e565b600061163183610db1565b905080600160a060020a031684600160a060020a0316148061166c575083600160a060020a0316611661846106a2565b600160a060020a0316145b8061169c5750600160a060020a0380821660009081526006602090815260408083209388168352929052205460ff165b949350505050565b82600160a060020a03166116b782610db1565b600160a060020a0316146117365760405160e560020a62461bcd02815260206004820152602960248201527f4552433732313a207472616e73666572206f6620746f6b656e2074686174206960448201527f73206e6f74206f776e0000000000000000000000000000000000000000000000606482015260840161071e565b600160a060020a0382166117b45760405160e560020a62461bcd028152602060048201526024808201527f4552433732313a207472616e7366657220746f20746865207a65726f2061646460448201527f7265737300000000000000000000000000000000000000000000000000000000606482015260840161071e565b6117bf838383611b3a565b6117ca60008261152b565b600160a060020a03831660009081526004602052604081208054600192906117f39084906124ff565b9091555050600160a060020a03821660009081526004602052604081208054600192906118219084906124a5565b9091555050600081815260036020526040808220805473ffffffffffffffffffffffffffffffffffffffff1916600160a060020a0386811691821790925591518493918716917fddf252ad1be2c89b69c2b068fc378daa952ba7f163c4a11628f55a4df523b3ef91a4505050565b600061189b82846124e0565b9392505050565b600061189b82846124bd565b600061189b82846124a5565b600160a060020a0382166119135760405160e560020a62461bcd02815260206004820181905260248201527f4552433732313a206d696e7420746f20746865207a65726f2061646472657373604482015260640161071e565b61191c8161150e565b1561196c5760405160e560020a62461bcd02815260206004820152601c60248201527f4552433732313a20746f6b656e20616c7265616479206d696e74656400000000604482015260640161071e565b61197860008383611b3a565b600160a060020a03821660009081526004602052604081208054600192906119a19084906124a5565b9091555050600081815260036020526040808220805473ffffffffffffffffffffffffffffffffffffffff1916600160a060020a03861690811790915590518392907fddf252ad1be2c89b69c2b068fc378daa952ba7f163c4a11628f55a4df523b3ef908290a45050565b60008054600160a060020a0383811673ffffffffffffffffffffffffffffffffffffffff19831681178455604051919092169283917f8be0079c531659141344cd1fd0a4f28419497f9722a3daafe3b4186f6b6457e09190a35050565b611a748484846116a4565b611a8084848484611bf2565b610f095760405160e560020a62461bcd02815260040161071e90612346565b6000600160e060020a031982167f80ac58cd000000000000000000000000000000000000000000000000000000001480611b025750600160e060020a031982167f5b5e139f00000000000000000000000000000000000000000000000000000000145b8061060a57507f01ffc9a700000000000000000000000000000000000000000000000000000000600160e060020a031983161461060a565b600160a060020a038316611b9557611b9081600980546000838152600a60205260408120829055600182018355919091527f6e1540171b6c0c960b71a7020d9f60077f6af931a8bbf590da0223dacf75c7af0155565b611bb8565b81600160a060020a031683600160a060020a031614611bb857611bb88382611d34565b600160a060020a038216611bcf5761087681611dd1565b82600160a060020a031682600160a060020a031614610876576108768282611eb3565b6000600160a060020a0384163b15611d29576040517f150b7a02000000000000000000000000000000000000000000000000000000008152600160a060020a0385169063150b7a0290611c4f903390899088908890600401612291565b602060405180830381600087803b158015611c6957600080fd5b505af1925050508015611c99575060408051601f3d908101601f19168201909252611c96918101906121ab565b60015b611cf6573d808015611cc7576040519150601f19603f3d011682016040523d82523d6000602084013e611ccc565b606091505b508051611cee5760405160e560020a62461bcd02815260040161071e90612346565b805181602001fd5b600160e060020a0319167f150b7a020000000000000000000000000000000000000000000000000000000014905061169c565b506001949350505050565b60006001611d4184610f0f565b611d4b91906124ff565b600083815260086020526040902054909150808214611d9e57600160a060020a03841660009081526007602090815260408083208584528252808320548484528184208190558352600890915290208190555b506000918252600860209081526040808420849055600160a060020a039094168352600781528383209183525290812055565b600954600090611de3906001906124ff565b6000838152600a602052604081205460098054939450909284908110611e1c5760e060020a634e487b7102600052603260045260246000fd5b906000526020600020015490508060098381548110611e4e5760e060020a634e487b7102600052603260045260246000fd5b6000918252602080832090910192909255828152600a90915260408082208490558582528120556009805480611e975760e060020a634e487b7102600052603160045260246000fd5b6001900381819060005260206000200160009055905550505050565b6000611ebe83610f0f565b600160a060020a039093166000908152600760209081526040808320868452825280832085905593825260089052919091209190915550565b828054611f0390612516565b90600052602060002090601f016020900481019282611f255760008555611f6b565b82601f10611f3e57805160ff1916838001178555611f6b565b82800160010185558215611f6b579182015b82811115611f6b578251825591602001919060010190611f50565b50611f77929150611f7b565b5090565b5b80821115611f775760008155600101611f7c565b600067ffffffffffffffff80841115611fab57611fab612567565b604051601f8501601f19908116603f01168101908282118183101715611fd357611fd3612567565b81604052809350858152868686011115611fec57600080fd5b858560208301376000602087830101525050509392505050565b600060208284031215612017578081fd5b813561189b81612580565b600060208284031215612033578081fd5b815161189b81612580565b60008060408385031215612050578081fd5b823561205b81612580565b9150602083013561206b81612580565b809150509250929050565b60008060006060848603121561208a578081fd5b833561209581612580565b925060208401356120a581612580565b929592945050506040919091013590565b600080600080608085870312156120cb578081fd5b84356120d681612580565b935060208501356120e681612580565b925060408501359150606085013567ffffffffffffffff811115612108578182fd5b8501601f81018713612118578182fd5b61212787823560208401611f90565b91505092959194509250565b60008060408385031215612145578182fd5b823561215081612580565b91506020830135801515811461206b578182fd5b60008060408385031215612176578182fd5b823561218181612580565b946020939093013593505050565b6000602082840312156121a0578081fd5b813561189b81612595565b6000602082840312156121bc578081fd5b815161189b81612595565b6000602082840312156121d8578081fd5b813567ffffffffffffffff8111156121ee578182fd5b8201601f810184136121fe578182fd5b61169c84823560208401611f90565b60006020828403121561221e578081fd5b5035919050565b60008060408385031215612237578182fd5b50508035926020909101359150565b60008151808452815b8181101561226b5760208185018101518683018201520161224f565b8181111561227c5782602083870101525b50601f01601f19169290920160200192915050565b6000600160a060020a038087168352808616602084015250836040830152608060608301526122c36080830184612246565b9695505050505050565b602080825282518282018190526000919060409081850190868401855b828110156123265781518051600160a060020a031685528601516bffffffffffffffffffffffff168685015292840192908501906001016122ea565b5091979650505050505050565b60208152600061189b6020830184612246565b60208082526032908201527f4552433732313a207472616e7366657220746f206e6f6e20455243373231526560408201527f63656976657220696d706c656d656e7465720000000000000000000000000000606082015260800190565b6020808252601e908201527f4f6e6c792076616c696420636f6e7472616374206164647265737365732e0000604082015260600190565b6020808252600c908201527f4f6e6c792061646d696e732e0000000000000000000000000000000000000000604082015260600190565b60208082526031908201527f4552433732313a207472616e736665722063616c6c6572206973206e6f74206f60408201527f776e6572206e6f7220617070726f766564000000000000000000000000000000606082015260800190565b60208082526018908201527f546f6b656e20494420646f6573206e6f742065786973742e0000000000000000604082015260600190565b600082198211156124b8576124b861254e565b500190565b6000826124db5760e060020a634e487b710281526012600452602481fd5b500490565b60008160001904831182151516156124fa576124fa61254e565b500290565b6000828210156125115761251161254e565b500390565b60028104600182168061252a57607f821691505b6020821081141561130f5760e060020a634e487b7102600052602260045260246000fd5b60e060020a634e487b7102600052601160045260246000fd5b60e060020a634e487b7102600052604160045260246000fd5b600160a060020a03811681146114cd57600080fd5b600160e060020a0319811681146114cd57600080fdfea2646970667358221220fab9fc6549776a0519acc6e77336400194c46b978c3f68851f7a2822df3bcd8b64736f6c63430008040033",
  "immutableReferences": {},
  "source": "// SPDX-License-Identifier: MIT\n\n/*\n<Insert ASCII Art Here>\n\nimnotArt Access\n*/\n\npragma solidity ^0.8.4;\n\nimport \"@openzeppelin/contracts/access/Ownable.sol\";\nimport \"@openzeppelin/contracts/token/ERC721/extensions/ERC721Enumerable.sol\";\nimport \"@openzeppelin/contracts/utils/math/SafeMath.sol\";\nimport \"./interface/BaseERC721Interface.sol\";\nimport \"./rarible/library/LibPart.sol\";\nimport \"./rarible/library/LibRoyaltiesV2.sol\";\nimport \"./rarible/RoyaltiesV2.sol\";\n\ncontract imnotArtAllAccess is Ownable, ERC721Enumerable, RoyaltiesV2 {\n    using SafeMath for uint256;\n\n    // ---\n    // Constants\n    // ---\n    uint public constant MAX_INVOCATIONS = 99;\n    bytes4 private constant _INTERFACE_ID_ERC165 = 0x01ffc9a7;\n    bytes4 private constant _INTERFACE_ID_ERC721 = 0x80ac58cd;\n    bytes4 private constant _INTERFACE_ID_ERC721_METADATA = 0x5b5e139f;\n    bytes4 private constant _INTERFACE_ID_ERC721_ENUMERABLE = 0x780e9d63;\n    bytes4 private constant _INTERFACE_ID_EIP2981 = 0x2a55205a;\n    uint16 public constant imnotArtSecondarySaleBps = 500; // 5% of Secondary Sale\n\n    // ---\n    // Properties\n    // ---\n    uint256 public nextTokenId = 1;\n    address public imnotArtPayoutAddress;\n    string private contractUri;\n\n    // ---\n    // Events\n    // ---\n    event PermanentURI(string _value, uint256 indexed _id); // OpenSea Freezing Metadata\n\n    // ---\n    // Security\n    // ---\n    mapping(address => bool) private _isAdmin;\n\n    modifier onlyAdmin() {\n        require(_isAdmin[msg.sender], \"Only admins.\");\n        _;\n    }\n\n    modifier onlyValidContractAddress(address contractAddress) {\n        require(validContractAddresses[contractAddress], \"Only valid contract addresses.\");\n        _;\n    }\n\n    modifier onlyValidTokenId(uint256 tokenId) {\n        require(_exists(tokenId), \"Token ID does not exist.\");\n        _;\n    }\n\n    // ---\n    // Mappings\n    // ---\n    mapping(uint256 => string) private metadataByTokenId;\n    mapping(address => bool) private validContractAddresses;\n    mapping(address => mapping(uint256 => bool)) private validTokenIdsByContract;\n    mapping(address => mapping(uint256 => address)) private contractToTokenToClaimedAddress;\n\n    // ---\n    // Constructor\n    // ---\n    constructor() ERC721(\"imnotArt All Access\", \"IMNOTARTALLACCESS\") { \n        _isAdmin[msg.sender] = true;\n\n        // imnotArt Mainnet Gnosis Safe\n        // _isAdmin[address(0x12b66baFc99D351f7e24874B3e52B1889641D3f3)] = true;\n        // imnotArtPayoutAddress = address(0x12b66baFc99D351f7e24874B3e52B1889641D3f3);\n        // contractUri = \"\";\n    }\n\n    // ---\n    // Supported Interfaces\n    // ---\n    function supportsInterface(bytes4 interfaceId) public view virtual override returns (bool) {\n        return interfaceId == _INTERFACE_ID_ERC165\n        || interfaceId == LibRoyaltiesV2._INTERFACE_ID_ROYALTIES\n        || interfaceId == _INTERFACE_ID_ERC721\n        || interfaceId == _INTERFACE_ID_ERC721_METADATA\n        || interfaceId == _INTERFACE_ID_ERC721_ENUMERABLE\n        || interfaceId == _INTERFACE_ID_EIP2981\n        || super.supportsInterface(interfaceId);\n    }\n\n    // ---\n    // Minting\n    // ---\n    function mint(address contractAddress, uint256 tokenId) public onlyValidContractAddress(contractAddress) returns (uint256 accessPassId) {\n        require(nextTokenId.add(1) > MAX_INVOCATIONS, \"There are no ALL ACCESS tokens remaining.\");\n        require(contractToTokenToClaimedAddress[contractAddress][tokenId] == address(0), \"ALL ACCESS token has already been minted.\");\n\n        BaseERC721Interface erc721Contract = BaseERC721Interface(contractAddress);\n        require(erc721Contract.ownerOf(tokenId) == msg.sender, \"You are not eligible to mint an ALL ACCESS token.\");\n\n        accessPassId = nextTokenId;\n        nextTokenId = nextTokenId.add(1);\n\n        contractToTokenToClaimedAddress[contractAddress][tokenId] = msg.sender;\n\n        _mint(msg.sender, accessPassId);\n    }\n\n    // ---\n    // Contract Gets\n    // ---\n    function isTokenIdValidForContract(address contractAddress, uint256 tokenId) public view onlyValidContractAddress(contractAddress) returns (bool) {\n        return validTokenIdsByContract[contractAddress][tokenId];\n    }\n\n    function hasTokenByClaimed(address contractAddress, uint256 tokenId) public view onlyValidContractAddress(contractAddress) returns (bool) {\n        return (contractToTokenToClaimedAddress[contractAddress][tokenId] != address(0x0));\n    }\n\n    // ---\n    // Contract Updates\n    // ---\n    function addValidContractAddress(address validContractAddress) public onlyAdmin {\n        validContractAddresses[validContractAddress] = true;\n    }\n\n    function addValidTokenId(address contractAddress, uint256 tokenId) public onlyAdmin onlyValidContractAddress(contractAddress) {\n        bool tokenIdAlreadyAdded = validTokenIdsByContract[contractAddress][tokenId];\n        if (!tokenIdAlreadyAdded) {\n            validTokenIdsByContract[contractAddress][tokenId] = true;\n        }\n    }\n\n    function updateContractUri(string memory newContractUri) public onlyAdmin {\n        contractUri = newContractUri;\n    }\n\n    // ---\n    // Metadata\n    // ---\n    function tokenURI(uint256 tokenId) public view override virtual onlyValidTokenId(tokenId) returns (string memory) {\n        return metadataByTokenId[tokenId];\n    }\n\n    // ---\n    // Secondary Marketplace Functions\n    // ---\n\n    /* OpenSea */\n    function contractURI() public view virtual returns (string memory) {\n        return contractUri;\n    }\n\n    /* Rarible Royalties V2 */\n    function getRaribleV2Royalties(uint256 tokenId) external view override onlyValidTokenId(tokenId) returns (LibPart.Part[] memory) {\n        LibPart.Part[] memory royalties = new LibPart.Part[](1);\n\n        royalties[1] = LibPart.Part({\n            account: payable(imnotArtPayoutAddress),\n            value: uint96(imnotArtSecondarySaleBps)\n        });\n\n        return royalties;\n    }\n\n    /* EIP-2981 - https://eips.ethereum.org/EIPS/eip-2981 */\n    function royaltyInfo(uint256 tokenId, uint256 salePrice) external view onlyValidTokenId(tokenId) returns (address receiver, uint256 amount) {\n        uint256 royaltyAmount = SafeMath.div(SafeMath.mul(salePrice, imnotArtSecondarySaleBps), 10000);\n        return (imnotArtPayoutAddress, royaltyAmount);\n    }\n}",
  "sourcePath": "/Users/ianolson/code/imnotart-access/contracts/imnotArtAllAccess.sol",
  "compiler": {
    "name": "solc",
    "version": "0.8.4+commit.c7e474f2.Emscripten.clang"
  },
  "schemaVersion": "3.3.4",
  "updatedAt": "2021-08-20T07:55:58.113Z",
  "devdoc": {
    "kind": "dev",
    "methods": {
      "approve(address,uint256)": {
        "details": "See {IERC721-approve}."
      },
      "balanceOf(address)": {
        "details": "See {IERC721-balanceOf}."
      },
      "getApproved(uint256)": {
        "details": "See {IERC721-getApproved}."
      },
      "isApprovedForAll(address,address)": {
        "details": "See {IERC721-isApprovedForAll}."
      },
      "name()": {
        "details": "See {IERC721Metadata-name}."
      },
      "owner()": {
        "details": "Returns the address of the current owner."
      },
      "ownerOf(uint256)": {
        "details": "See {IERC721-ownerOf}."
      },
      "renounceOwnership()": {
        "details": "Leaves the contract without owner. It will not be possible to call `onlyOwner` functions anymore. Can only be called by the current owner. NOTE: Renouncing ownership will leave the contract without an owner, thereby removing any functionality that is only available to the owner."
      },
      "safeTransferFrom(address,address,uint256)": {
        "details": "See {IERC721-safeTransferFrom}."
      },
      "safeTransferFrom(address,address,uint256,bytes)": {
        "details": "See {IERC721-safeTransferFrom}."
      },
      "setApprovalForAll(address,bool)": {
        "details": "See {IERC721-setApprovalForAll}."
      },
      "supportsInterface(bytes4)": {
        "details": "See {IERC165-supportsInterface}."
      },
      "symbol()": {
        "details": "See {IERC721Metadata-symbol}."
      },
      "tokenByIndex(uint256)": {
        "details": "See {IERC721Enumerable-tokenByIndex}."
      },
      "tokenOfOwnerByIndex(address,uint256)": {
        "details": "See {IERC721Enumerable-tokenOfOwnerByIndex}."
      },
      "tokenURI(uint256)": {
        "details": "See {IERC721Metadata-tokenURI}."
      },
      "totalSupply()": {
        "details": "See {IERC721Enumerable-totalSupply}."
      },
      "transferFrom(address,address,uint256)": {
        "details": "See {IERC721-transferFrom}."
      },
      "transferOwnership(address)": {
        "details": "Transfers ownership of the contract to a new account (`newOwner`). Can only be called by the current owner."
      }
    },
    "version": 1
  },
  "userdoc": {
    "kind": "user",
    "methods": {},
    "version": 1
  }
}