{
  "contractName": "imnotArtAccess",
  "abi": [
    {
      "inputs": [],
      "stateMutability": "nonpayable",
      "type": "constructor"
    },
    {
      "anonymous": false,
      "inputs": [
        {
          "indexed": true,
          "internalType": "address",
          "name": "owner",
          "type": "address"
        },
        {
          "indexed": true,
          "internalType": "address",
          "name": "approved",
          "type": "address"
        },
        {
          "indexed": true,
          "internalType": "uint256",
          "name": "tokenId",
          "type": "uint256"
        }
      ],
      "name": "Approval",
      "type": "event"
    },
    {
      "anonymous": false,
      "inputs": [
        {
          "indexed": true,
          "internalType": "address",
          "name": "owner",
          "type": "address"
        },
        {
          "indexed": true,
          "internalType": "address",
          "name": "operator",
          "type": "address"
        },
        {
          "indexed": false,
          "internalType": "bool",
          "name": "approved",
          "type": "bool"
        }
      ],
      "name": "ApprovalForAll",
      "type": "event"
    },
    {
      "anonymous": false,
      "inputs": [
        {
          "indexed": true,
          "internalType": "address",
          "name": "previousOwner",
          "type": "address"
        },
        {
          "indexed": true,
          "internalType": "address",
          "name": "newOwner",
          "type": "address"
        }
      ],
      "name": "OwnershipTransferred",
      "type": "event"
    },
    {
      "anonymous": false,
      "inputs": [
        {
          "indexed": false,
          "internalType": "string",
          "name": "_value",
          "type": "string"
        },
        {
          "indexed": true,
          "internalType": "uint256",
          "name": "_id",
          "type": "uint256"
        }
      ],
      "name": "PermanentURI",
      "type": "event"
    },
    {
      "anonymous": false,
      "inputs": [
        {
          "indexed": false,
          "internalType": "uint256",
          "name": "tokenId",
          "type": "uint256"
        },
        {
          "components": [
            {
              "internalType": "address payable",
              "name": "account",
              "type": "address"
            },
            {
              "internalType": "uint96",
              "name": "value",
              "type": "uint96"
            }
          ],
          "indexed": false,
          "internalType": "struct LibPart.Part[]",
          "name": "royalties",
          "type": "tuple[]"
        }
      ],
      "name": "RoyaltiesSet",
      "type": "event"
    },
    {
      "anonymous": false,
      "inputs": [
        {
          "indexed": true,
          "internalType": "address",
          "name": "from",
          "type": "address"
        },
        {
          "indexed": true,
          "internalType": "address",
          "name": "to",
          "type": "address"
        },
        {
          "indexed": true,
          "internalType": "uint256",
          "name": "tokenId",
          "type": "uint256"
        }
      ],
      "name": "Transfer",
      "type": "event"
    },
    {
      "inputs": [
        {
          "internalType": "address",
          "name": "to",
          "type": "address"
        },
        {
          "internalType": "uint256",
          "name": "tokenId",
          "type": "uint256"
        }
      ],
      "name": "approve",
      "outputs": [],
      "stateMutability": "nonpayable",
      "type": "function"
    },
    {
      "inputs": [
        {
          "internalType": "address",
          "name": "owner",
          "type": "address"
        }
      ],
      "name": "balanceOf",
      "outputs": [
        {
          "internalType": "uint256",
          "name": "",
          "type": "uint256"
        }
      ],
      "stateMutability": "view",
      "type": "function",
      "constant": true
    },
    {
      "inputs": [
        {
          "internalType": "uint256",
          "name": "tokenId",
          "type": "uint256"
        }
      ],
      "name": "getApproved",
      "outputs": [
        {
          "internalType": "address",
          "name": "",
          "type": "address"
        }
      ],
      "stateMutability": "view",
      "type": "function",
      "constant": true
    },
    {
      "inputs": [],
      "name": "imnotArtPayoutAddress",
      "outputs": [
        {
          "internalType": "address",
          "name": "",
          "type": "address"
        }
      ],
      "stateMutability": "view",
      "type": "function",
      "constant": true
    },
    {
      "inputs": [],
      "name": "imnotArtSecondarySaleBps",
      "outputs": [
        {
          "internalType": "uint16",
          "name": "",
          "type": "uint16"
        }
      ],
      "stateMutability": "view",
      "type": "function",
      "constant": true
    },
    {
      "inputs": [
        {
          "internalType": "address",
          "name": "owner",
          "type": "address"
        },
        {
          "internalType": "address",
          "name": "operator",
          "type": "address"
        }
      ],
      "name": "isApprovedForAll",
      "outputs": [
        {
          "internalType": "bool",
          "name": "",
          "type": "bool"
        }
      ],
      "stateMutability": "view",
      "type": "function",
      "constant": true
    },
    {
      "inputs": [],
      "name": "name",
      "outputs": [
        {
          "internalType": "string",
          "name": "",
          "type": "string"
        }
      ],
      "stateMutability": "view",
      "type": "function",
      "constant": true
    },
    {
      "inputs": [],
      "name": "nextTokenId",
      "outputs": [
        {
          "internalType": "uint256",
          "name": "",
          "type": "uint256"
        }
      ],
      "stateMutability": "view",
      "type": "function",
      "constant": true
    },
    {
      "inputs": [],
      "name": "owner",
      "outputs": [
        {
          "internalType": "address",
          "name": "",
          "type": "address"
        }
      ],
      "stateMutability": "view",
      "type": "function",
      "constant": true
    },
    {
      "inputs": [
        {
          "internalType": "uint256",
          "name": "tokenId",
          "type": "uint256"
        }
      ],
      "name": "ownerOf",
      "outputs": [
        {
          "internalType": "address",
          "name": "",
          "type": "address"
        }
      ],
      "stateMutability": "view",
      "type": "function",
      "constant": true
    },
    {
      "inputs": [],
      "name": "renounceOwnership",
      "outputs": [],
      "stateMutability": "nonpayable",
      "type": "function"
    },
    {
      "inputs": [
        {
          "internalType": "address",
          "name": "from",
          "type": "address"
        },
        {
          "internalType": "address",
          "name": "to",
          "type": "address"
        },
        {
          "internalType": "uint256",
          "name": "tokenId",
          "type": "uint256"
        }
      ],
      "name": "safeTransferFrom",
      "outputs": [],
      "stateMutability": "nonpayable",
      "type": "function"
    },
    {
      "inputs": [
        {
          "internalType": "address",
          "name": "from",
          "type": "address"
        },
        {
          "internalType": "address",
          "name": "to",
          "type": "address"
        },
        {
          "internalType": "uint256",
          "name": "tokenId",
          "type": "uint256"
        },
        {
          "internalType": "bytes",
          "name": "_data",
          "type": "bytes"
        }
      ],
      "name": "safeTransferFrom",
      "outputs": [],
      "stateMutability": "nonpayable",
      "type": "function"
    },
    {
      "inputs": [
        {
          "internalType": "address",
          "name": "operator",
          "type": "address"
        },
        {
          "internalType": "bool",
          "name": "approved",
          "type": "bool"
        }
      ],
      "name": "setApprovalForAll",
      "outputs": [],
      "stateMutability": "nonpayable",
      "type": "function"
    },
    {
      "inputs": [],
      "name": "symbol",
      "outputs": [
        {
          "internalType": "string",
          "name": "",
          "type": "string"
        }
      ],
      "stateMutability": "view",
      "type": "function",
      "constant": true
    },
    {
      "inputs": [
        {
          "internalType": "uint256",
          "name": "index",
          "type": "uint256"
        }
      ],
      "name": "tokenByIndex",
      "outputs": [
        {
          "internalType": "uint256",
          "name": "",
          "type": "uint256"
        }
      ],
      "stateMutability": "view",
      "type": "function",
      "constant": true
    },
    {
      "inputs": [
        {
          "internalType": "address",
          "name": "owner",
          "type": "address"
        },
        {
          "internalType": "uint256",
          "name": "index",
          "type": "uint256"
        }
      ],
      "name": "tokenOfOwnerByIndex",
      "outputs": [
        {
          "internalType": "uint256",
          "name": "",
          "type": "uint256"
        }
      ],
      "stateMutability": "view",
      "type": "function",
      "constant": true
    },
    {
      "inputs": [
        {
          "internalType": "uint256",
          "name": "tokenId",
          "type": "uint256"
        }
      ],
      "name": "tokenURI",
      "outputs": [
        {
          "internalType": "string",
          "name": "",
          "type": "string"
        }
      ],
      "stateMutability": "view",
      "type": "function",
      "constant": true
    },
    {
      "inputs": [],
      "name": "totalSupply",
      "outputs": [
        {
          "internalType": "uint256",
          "name": "",
          "type": "uint256"
        }
      ],
      "stateMutability": "view",
      "type": "function",
      "constant": true
    },
    {
      "inputs": [
        {
          "internalType": "address",
          "name": "from",
          "type": "address"
        },
        {
          "internalType": "address",
          "name": "to",
          "type": "address"
        },
        {
          "internalType": "uint256",
          "name": "tokenId",
          "type": "uint256"
        }
      ],
      "name": "transferFrom",
      "outputs": [],
      "stateMutability": "nonpayable",
      "type": "function"
    },
    {
      "inputs": [
        {
          "internalType": "address",
          "name": "newOwner",
          "type": "address"
        }
      ],
      "name": "transferOwnership",
      "outputs": [],
      "stateMutability": "nonpayable",
      "type": "function"
    },
    {
      "inputs": [
        {
          "internalType": "bytes4",
          "name": "interfaceId",
          "type": "bytes4"
        }
      ],
      "name": "supportsInterface",
      "outputs": [
        {
          "internalType": "bool",
          "name": "",
          "type": "bool"
        }
      ],
      "stateMutability": "view",
      "type": "function",
      "constant": true
    },
    {
      "inputs": [
        {
          "internalType": "address",
          "name": "contractAddress",
          "type": "address"
        },
        {
          "internalType": "uint256",
          "name": "tokenId",
          "type": "uint256"
        }
      ],
      "name": "mint",
      "outputs": [
        {
          "internalType": "uint256",
          "name": "accessPassId",
          "type": "uint256"
        }
      ],
      "stateMutability": "nonpayable",
      "type": "function"
    },
    {
      "inputs": [
        {
          "internalType": "address",
          "name": "contractAddress",
          "type": "address"
        }
      ],
      "name": "getValidTokenIdsForContract",
      "outputs": [
        {
          "internalType": "uint256[]",
          "name": "",
          "type": "uint256[]"
        }
      ],
      "stateMutability": "view",
      "type": "function",
      "constant": true
    },
    {
      "inputs": [
        {
          "internalType": "address",
          "name": "contractAddress",
          "type": "address"
        },
        {
          "internalType": "uint256",
          "name": "tokenId",
          "type": "uint256"
        }
      ],
      "name": "hasTokenByClaimed",
      "outputs": [
        {
          "internalType": "bool",
          "name": "",
          "type": "bool"
        }
      ],
      "stateMutability": "view",
      "type": "function",
      "constant": true
    },
    {
      "inputs": [
        {
          "internalType": "address",
          "name": "validContractAddress",
          "type": "address"
        }
      ],
      "name": "addValidContractAddress",
      "outputs": [],
      "stateMutability": "nonpayable",
      "type": "function"
    },
    {
      "inputs": [
        {
          "internalType": "address",
          "name": "contractAddress",
          "type": "address"
        },
        {
          "internalType": "uint256",
          "name": "tokenId",
          "type": "uint256"
        }
      ],
      "name": "addValidTokenId",
      "outputs": [],
      "stateMutability": "nonpayable",
      "type": "function"
    },
    {
      "inputs": [],
      "name": "contractURI",
      "outputs": [
        {
          "internalType": "string",
          "name": "",
          "type": "string"
        }
      ],
      "stateMutability": "view",
      "type": "function",
      "constant": true
    },
    {
      "inputs": [
        {
          "internalType": "uint256",
          "name": "tokenId",
          "type": "uint256"
        }
      ],
      "name": "getRaribleV2Royalties",
      "outputs": [
        {
          "components": [
            {
              "internalType": "address payable",
              "name": "account",
              "type": "address"
            },
            {
              "internalType": "uint96",
              "name": "value",
              "type": "uint96"
            }
          ],
          "internalType": "struct LibPart.Part[]",
          "name": "",
          "type": "tuple[]"
        }
      ],
      "stateMutability": "view",
      "type": "function",
      "constant": true
    },
    {
      "inputs": [
        {
          "internalType": "uint256",
          "name": "tokenId",
          "type": "uint256"
        },
        {
          "internalType": "uint256",
          "name": "salePrice",
          "type": "uint256"
        }
      ],
      "name": "royaltyInfo",
      "outputs": [
        {
          "internalType": "address",
          "name": "receiver",
          "type": "address"
        },
        {
          "internalType": "uint256",
          "name": "amount",
          "type": "uint256"
        }
      ],
      "stateMutability": "view",
      "type": "function",
      "constant": true
    }
  ],
  "bytecode": "0x60806040526001600b553480156200001657600080fd5b506040518060400160405280600f81526020017f696d6e6f7441727420416363657373000000000000000000000000000000000081525060405180602001604052806000815250620000896200007a62000150640100000000026401000000009004565b64010000000062000154810204565b81516200009e906001906020850190620001a4565b508051620000b4906002906020840190620001a4565b5050336000908152600e602090815260408083208054600160ff1991821681179092557312b66bafc99d351f7e24874b3e52b1889641d3f38086527f52c36abbf87d2833e538718b24f91aa2ab461617cc77797aeda37df029f60f0480549092169092179055600c8054600160a060020a031916909117905580519182019081905290829052620001499250600d91620001a4565b50620002a0565b3390565b60008054600160a060020a03838116600160a060020a0319831681178455604051919092169283917f8be0079c531659141344cd1fd0a4f28419497f9722a3daafe3b4186f6b6457e09190a35050565b828054620001b2906200024a565b90600052602060002090601f016020900481019282620001d6576000855562000221565b82601f10620001f157805160ff191683800117855562000221565b8280016001018555821562000221579182015b828111156200022157825182559160200191906001019062000204565b506200022f92915062000233565b5090565b5b808211156200022f576000815560010162000234565b6002810460018216806200025f57607f821691505b602082108114156200029a577f4e487b7100000000000000000000000000000000000000000000000000000000600052602260045260246000fd5b50919050565b61242780620002b06000396000f3fe608060405234801561001057600080fd5b50600436106101f7576000357c010000000000000000000000000000000000000000000000000000000090048063715018a611610121578063b3a83b49116100bf578063cad96cca1161008e578063cad96cca1461042d578063e8a3d4851461044d578063e985e9c514610455578063f2fde38b1461049157600080fd5b8063b3a83b49146103d4578063b88d4fde146103f4578063c34a2a3a14610407578063c87b56dd1461041a57600080fd5b80639562ccf9116100fb5780639562ccf91461039357806395d89b41146103a6578063a22cb465146103ae578063a40e3a8d146103c157600080fd5b8063715018a61461037157806375794a3c146103795780638da5cb5b1461038257600080fd5b80632f745c59116101995780634f6ccce7116101685780634f6ccce7146103255780636352211e146103385780636924f4aa1461034b57806370a082311461035e57600080fd5b80632f745c59146102d05780633dd2fdff146102e357806340c10f19146102ff57806342842e0e1461031257600080fd5b8063095ea7b3116101d5578063095ea7b31461026457806318160ddd1461027957806323b872dd1461028b5780632a55205a1461029e57600080fd5b806301ffc9a7146101fc57806306fdde0314610224578063081812fc14610239575b600080fd5b61020f61020a366004611fe5565b6104a4565b60405190151581526020015b60405180910390f35b61022c6105ec565b60405161021b9190612197565b61024c61024736600461201d565b61067e565b604051600160a060020a03909116815260200161021b565b610277610272366004611fbc565b61072c565b005b6009545b60405190815260200161021b565b610277610299366004611e72565b610864565b6102b16102ac366004612035565b610898565b60408051600160a060020a03909316835260208301919091520161021b565b61027d6102de366004611fbc565b610934565b6102ec6101f481565b60405161ffff909116815260200161021b565b61027d61030d366004611fbc565b6109df565b610277610320366004611e72565b610a92565b61027d61033336600461201d565b610aad565b61024c61034636600461201d565b610b65565b610277610359366004611fbc565b610bf3565b61027d61036c366004611e26565b610d2a565b610277610dc7565b61027d600b5481565b600054600160a060020a031661024c565b61020f6103a1366004611fbc565b610e30565b61022c610e99565b6102776103bc366004611f82565b610ea8565b6102776103cf366004611e26565b610f70565b6103e76103e2366004611e26565b610ff6565b60405161021b9190612153565b610277610402366004611ead565b6110a2565b600c5461024c90600160a060020a031681565b61022c61042836600461201d565b6110dd565b61044061043b36600461201d565b6111d6565b60405161021b91906120ed565b61022c6112e2565b61020f610463366004611e40565b600160a060020a03918216600090815260066020908152604080832093909416825291909152205460ff1690565b61027761049f366004611e26565b6112f1565b6000600160e060020a031982167f01ffc9a70000000000000000000000000000000000000000000000000000000014806105075750600160e060020a031982167fcad96cca00000000000000000000000000000000000000000000000000000000145b8061053b5750600160e060020a031982167f80ac58cd00000000000000000000000000000000000000000000000000000000145b8061056f5750600160e060020a031982167f5b5e139f00000000000000000000000000000000000000000000000000000000145b806105a35750600160e060020a031982167f780e9d6300000000000000000000000000000000000000000000000000000000145b806105d75750600160e060020a031982167f2a55205a00000000000000000000000000000000000000000000000000000000145b806105e657506105e6826113d9565b92915050565b6060600180546105fb90612329565b80601f016020809104026020016040519081016040528092919081815260200182805461062790612329565b80156106745780601f1061064957610100808354040283529160200191610674565b820191906000526020600020905b81548152906001019060200180831161065757829003601f168201915b5050505050905090565b600081815260036020526040812054600160a060020a03166107105760405160e560020a62461bcd02815260206004820152602c60248201527f4552433732313a20617070726f76656420717565727920666f72206e6f6e657860448201527f697374656e7420746f6b656e000000000000000000000000000000000000000060648201526084015b60405180910390fd5b50600090815260056020526040902054600160a060020a031690565b600061073782610b65565b905080600160a060020a031683600160a060020a031614156107c45760405160e560020a62461bcd02815260206004820152602160248201527f4552433732313a20617070726f76616c20746f2063757272656e74206f776e6560448201527f72000000000000000000000000000000000000000000000000000000000000006064820152608401610707565b33600160a060020a03821614806107e057506107e08133610463565b6108555760405160e560020a62461bcd02815260206004820152603860248201527f4552433732313a20617070726f76652063616c6c6572206973206e6f74206f7760448201527f6e6572206e6f7220617070726f76656420666f7220616c6c00000000000000006064820152608401610707565b61085f8383611417565b505050565b61086e3382611492565b61088d5760405160e560020a62461bcd0281526004016107079061223e565b61085f83838361159d565b60008281526003602052604081205481908490600160a060020a03166109035760405160e560020a62461bcd02815260206004820152601860248201527f546f6b656e20494420646f6573206e6f742065786973742e00000000000000006044820152606401610707565b600061091c610914866101f4611788565b612710611794565b600c54600160a060020a031697909650945050505050565b600061093f83610d2a565b82106109b65760405160e560020a62461bcd02815260206004820152602b60248201527f455243373231456e756d657261626c653a206f776e657220696e646578206f7560448201527f74206f6620626f756e64730000000000000000000000000000000000000000006064820152608401610707565b50600160a060020a03919091166000908152600760209081526040808320938352929052205490565b600160a060020a0382166000908152600f6020526040812054839060ff16610a1c5760405160e560020a62461bcd02815260040161070790612207565b600160a060020a038416600090815260116020908152604082209185905252600b549150610a4b8260016117a0565b600b5550600160a060020a03909216600090815260116020908152604080832093835292905220805473ffffffffffffffffffffffffffffffffffffffff19163317905590565b61085f838383604051806020016040528060008152506110a2565b6000610ab860095490565b8210610b2f5760405160e560020a62461bcd02815260206004820152602c60248201527f455243373231456e756d657261626c653a20676c6f62616c20696e646578206f60448201527f7574206f6620626f756e647300000000000000000000000000000000000000006064820152608401610707565b60098281548110610b535760e060020a634e487b7102600052603260045260246000fd5b90600052602060002001549050919050565b600081815260036020526040812054600160a060020a0316806105e65760405160e560020a62461bcd02815260206004820152602960248201527f4552433732313a206f776e657220717565727920666f72206e6f6e657869737460448201527f656e7420746f6b656e00000000000000000000000000000000000000000000006064820152608401610707565b336000908152600e602052604090205460ff16610c555760405160e560020a62461bcd02815260206004820152600c60248201527f4f6e6c792061646d696e732e00000000000000000000000000000000000000006044820152606401610707565b600160a060020a0382166000908152600f6020526040902054829060ff16610c925760405160e560020a62461bcd02815260040161070790612207565b600160a060020a0383166000908152601060205260408120815b8154811015610d07576000828281548110610cda5760e060020a634e487b7102600052603260045260246000fd5b9060005260206000200154905085811415610cf457600193505b5080610cff81612361565b915050610cac565b82610d22578154600181018355600083815260209020018590555b505050505050565b6000600160a060020a038216610dab5760405160e560020a62461bcd02815260206004820152602a60248201527f4552433732313a2062616c616e636520717565727920666f7220746865207a6560448201527f726f2061646472657373000000000000000000000000000000000000000000006064820152608401610707565b50600160a060020a031660009081526004602052604090205490565b600054600160a060020a03163314610e245760405160e560020a62461bcd02815260206004820181905260248201527f4f776e61626c653a2063616c6c6572206973206e6f7420746865206f776e65726044820152606401610707565b610e2e60006117ac565b565b600160a060020a0382166000908152600f6020526040812054839060ff16610e6d5760405160e560020a62461bcd02815260040161070790612207565b5050600160a060020a039182166000908152601160209081526040808320938352929052205416151590565b6060600280546105fb90612329565b600160a060020a038216331415610f045760405160e560020a62461bcd02815260206004820152601960248201527f4552433732313a20617070726f766520746f2063616c6c6572000000000000006044820152606401610707565b336000818152600660209081526040808320600160a060020a03871680855290835292819020805460ff191686151590811790915590519081529192917f17307eab39ab6107e8899845ad3d59bd9653f200f220920489ca2b5937696c31910160405180910390a35050565b336000908152600e602052604090205460ff16610fd25760405160e560020a62461bcd02815260206004820152600c60248201527f4f6e6c792061646d696e732e00000000000000000000000000000000000000006044820152606401610707565b600160a060020a03166000908152600f60205260409020805460ff19166001179055565b600160a060020a0381166000908152600f6020526040902054606090829060ff166110365760405160e560020a62461bcd02815260040161070790612207565b600160a060020a0383166000908152601060209081526040918290208054835181840281018401909452808452909183018282801561109457602002820191906000526020600020905b815481526020019060010190808311611080575b505050505091505b50919050565b6110ac3383611492565b6110cb5760405160e560020a62461bcd0281526004016107079061223e565b6110d784848484611809565b50505050565b600081815260036020526040902054606090600160a060020a031661116d5760405160e560020a62461bcd02815260206004820152602f60248201527f4552433732314d657461646174613a2055524920717565727920666f72206e6f60448201527f6e6578697374656e7420746f6b656e00000000000000000000000000000000006064820152608401610707565b600061118460408051602081019091526000815290565b905060008151116111a457604051806020016040528060008152506111cf565b806111ae8461183f565b6040516020016111bf929190612082565b6040516020818303038152906040525b9392505050565b6060816111fa81600090815260036020526040902054600160a060020a0316151590565b6112495760405160e560020a62461bcd02815260206004820152601860248201527f546f6b656e20494420646f6573206e6f742065786973742e00000000000000006044820152606401610707565b604080516001808252818301909252600091816020015b604080518082019091526000808252602082015281526020019060019003908161126057505060408051808201909152600c54600160a060020a031681526101f46020820152815191925090829060019081106112d05760e060020a634e487b7102600052603260045260246000fd5b60209081029190910101529392505050565b6060600d80546105fb90612329565b600054600160a060020a0316331461134e5760405160e560020a62461bcd02815260206004820181905260248201527f4f776e61626c653a2063616c6c6572206973206e6f7420746865206f776e65726044820152606401610707565b600160a060020a0381166113cd5760405160e560020a62461bcd02815260206004820152602660248201527f4f776e61626c653a206e6577206f776e657220697320746865207a65726f206160448201527f64647265737300000000000000000000000000000000000000000000000000006064820152608401610707565b6113d6816117ac565b50565b6000600160e060020a031982167f780e9d630000000000000000000000000000000000000000000000000000000014806105e657506105e6826119b2565b6000818152600560205260409020805473ffffffffffffffffffffffffffffffffffffffff1916600160a060020a038416908117909155819061145982610b65565b600160a060020a03167f8c5be1e5ebec7d5bd14f71427d1e84f3dd0314c0f7b2291e5b200ac8c7c3b92560405160405180910390a45050565b600081815260036020526040812054600160a060020a031661151f5760405160e560020a62461bcd02815260206004820152602c60248201527f4552433732313a206f70657261746f7220717565727920666f72206e6f6e657860448201527f697374656e7420746f6b656e00000000000000000000000000000000000000006064820152608401610707565b600061152a83610b65565b905080600160a060020a031684600160a060020a03161480611565575083600160a060020a031661155a8461067e565b600160a060020a0316145b806115955750600160a060020a0380821660009081526006602090815260408083209388168352929052205460ff165b949350505050565b82600160a060020a03166115b082610b65565b600160a060020a03161461162f5760405160e560020a62461bcd02815260206004820152602960248201527f4552433732313a207472616e73666572206f6620746f6b656e2074686174206960448201527f73206e6f74206f776e00000000000000000000000000000000000000000000006064820152608401610707565b600160a060020a0382166116ad5760405160e560020a62461bcd028152602060048201526024808201527f4552433732313a207472616e7366657220746f20746865207a65726f2061646460448201527f72657373000000000000000000000000000000000000000000000000000000006064820152608401610707565b6116b8838383611a4d565b6116c3600082611417565b600160a060020a03831660009081526004602052604081208054600192906116ec9084906122e6565b9091555050600160a060020a038216600090815260046020526040812080546001929061171a90849061229b565b9091555050600081815260036020526040808220805473ffffffffffffffffffffffffffffffffffffffff1916600160a060020a0386811691821790925591518493918716917fddf252ad1be2c89b69c2b068fc378daa952ba7f163c4a11628f55a4df523b3ef91a4505050565b60006111cf82846122c7565b60006111cf82846122b3565b60006111cf828461229b565b60008054600160a060020a0383811673ffffffffffffffffffffffffffffffffffffffff19831681178455604051919092169283917f8be0079c531659141344cd1fd0a4f28419497f9722a3daafe3b4186f6b6457e09190a35050565b61181484848461159d565b61182084848484611b05565b6110d75760405160e560020a62461bcd028152600401610707906121aa565b60608161187f57505060408051808201909152600181527f3000000000000000000000000000000000000000000000000000000000000000602082015290565b8160005b81156118a9578061189381612361565b91506118a29050600a836122b3565b9150611883565b60008167ffffffffffffffff8111156118d55760e060020a634e487b7102600052604160045260246000fd5b6040519080825280601f01601f1916602001820160405280156118ff576020820181803683370190505b5090505b8415611595576119146001836122e6565b9150611921600a8661237c565b61192c90603061229b565b7f0100000000000000000000000000000000000000000000000000000000000000028183815181106119715760e060020a634e487b7102600052603260045260246000fd5b60200101907effffffffffffffffffffffffffffffffffffffffffffffffffffffffffffff1916908160001a9053506119ab600a866122b3565b9450611903565b6000600160e060020a031982167f80ac58cd000000000000000000000000000000000000000000000000000000001480611a155750600160e060020a031982167f5b5e139f00000000000000000000000000000000000000000000000000000000145b806105e657507f01ffc9a700000000000000000000000000000000000000000000000000000000600160e060020a03198316146105e6565b600160a060020a038316611aa857611aa381600980546000838152600a60205260408120829055600182018355919091527f6e1540171b6c0c960b71a7020d9f60077f6af931a8bbf590da0223dacf75c7af0155565b611acb565b81600160a060020a031683600160a060020a031614611acb57611acb8382611c47565b600160a060020a038216611ae25761085f81611ce4565b82600160a060020a031682600160a060020a03161461085f5761085f8282611dc6565b6000600160a060020a0384163b15611c3c576040517f150b7a02000000000000000000000000000000000000000000000000000000008152600160a060020a0385169063150b7a0290611b629033908990889088906004016120b1565b602060405180830381600087803b158015611b7c57600080fd5b505af1925050508015611bac575060408051601f3d908101601f19168201909252611ba991810190612001565b60015b611c09573d808015611bda576040519150601f19603f3d011682016040523d82523d6000602084013e611bdf565b606091505b508051611c015760405160e560020a62461bcd028152600401610707906121aa565b805181602001fd5b600160e060020a0319167f150b7a0200000000000000000000000000000000000000000000000000000000149050611595565b506001949350505050565b60006001611c5484610d2a565b611c5e91906122e6565b600083815260086020526040902054909150808214611cb157600160a060020a03841660009081526007602090815260408083208584528252808320548484528184208190558352600890915290208190555b506000918252600860209081526040808420849055600160a060020a039094168352600781528383209183525290812055565b600954600090611cf6906001906122e6565b6000838152600a602052604081205460098054939450909284908110611d2f5760e060020a634e487b7102600052603260045260246000fd5b906000526020600020015490508060098381548110611d615760e060020a634e487b7102600052603260045260246000fd5b6000918252602080832090910192909255828152600a90915260408082208490558582528120556009805480611daa5760e060020a634e487b7102600052603160045260246000fd5b6001900381819060005260206000200160009055905550505050565b6000611dd183610d2a565b600160a060020a039093166000908152600760209081526040808320868452825280832085905593825260089052919091209190915550565b8035600160a060020a0381168114611e2157600080fd5b919050565b600060208284031215611e37578081fd5b6111cf82611e0a565b60008060408385031215611e52578081fd5b611e5b83611e0a565b9150611e6960208401611e0a565b90509250929050565b600080600060608486031215611e86578081fd5b611e8f84611e0a565b9250611e9d60208501611e0a565b9150604084013590509250925092565b60008060008060808587031215611ec2578081fd5b611ecb85611e0a565b9350611ed960208601611e0a565b925060408501359150606085013567ffffffffffffffff80821115611efc578283fd5b818701915087601f830112611f0f578283fd5b813581811115611f2157611f216123c2565b604051601f8201601f19908116603f01168101908382118183101715611f4957611f496123c2565b816040528281528a6020848701011115611f61578586fd5b82602086016020830137918201602001949094529598949750929550505050565b60008060408385031215611f94578182fd5b611f9d83611e0a565b915060208301358015158114611fb1578182fd5b809150509250929050565b60008060408385031215611fce578182fd5b611fd783611e0a565b946020939093013593505050565b600060208284031215611ff6578081fd5b81356111cf816123db565b600060208284031215612012578081fd5b81516111cf816123db565b60006020828403121561202e578081fd5b5035919050565b60008060408385031215612047578182fd5b50508035926020909101359150565b6000815180845261206e8160208601602086016122fd565b601f01601f19169290920160200192915050565b600083516120948184602088016122fd565b8351908301906120a88183602088016122fd565b01949350505050565b6000600160a060020a038087168352808616602084015250836040830152608060608301526120e36080830184612056565b9695505050505050565b602080825282518282018190526000919060409081850190868401855b828110156121465781518051600160a060020a031685528601516bffffffffffffffffffffffff1686850152928401929085019060010161210a565b5091979650505050505050565b6020808252825182820181905260009190848201906040850190845b8181101561218b5783518352928401929184019160010161216f565b50909695505050505050565b6020815260006111cf6020830184612056565b60208082526032908201527f4552433732313a207472616e7366657220746f206e6f6e20455243373231526560408201527f63656976657220696d706c656d656e7465720000000000000000000000000000606082015260800190565b6020808252601e908201527f4f6e6c792076616c696420636f6e7472616374206164647265737365732e0000604082015260600190565b60208082526031908201527f4552433732313a207472616e736665722063616c6c6572206973206e6f74206f60408201527f776e6572206e6f7220617070726f766564000000000000000000000000000000606082015260800190565b600082198211156122ae576122ae612390565b500190565b6000826122c2576122c26123a9565b500490565b60008160001904831182151516156122e1576122e1612390565b500290565b6000828210156122f8576122f8612390565b500390565b60005b83811015612318578181015183820152602001612300565b838111156110d75750506000910152565b60028104600182168061233d57607f821691505b6020821081141561109c5760e060020a634e487b7102600052602260045260246000fd5b600060001982141561237557612375612390565b5060010190565b60008261238b5761238b6123a9565b500690565b60e060020a634e487b7102600052601160045260246000fd5b60e060020a634e487b7102600052601260045260246000fd5b60e060020a634e487b7102600052604160045260246000fd5b600160e060020a0319811681146113d657600080fdfea2646970667358221220e785767c3d8d5d59ce5cca1925360a63141e681f6ac6875a8f20cd154d9098d864736f6c63430008040033",
  "immutableReferences": {},
  "source": "// SPDX-License-Identifier: MIT\n\n/*\n<Insert ASCII Art Here>\n\nimnotArt Access\n*/\n\npragma solidity ^0.8.4;\n\nimport \"@openzeppelin/contracts/access/Ownable.sol\";\nimport \"@openzeppelin/contracts/token/ERC721/extensions/ERC721Enumerable.sol\";\nimport \"@openzeppelin/contracts/utils/math/SafeMath.sol\";\nimport \"./rarible/library/LibPart.sol\";\nimport \"./rarible/library/LibRoyaltiesV2.sol\";\nimport \"./rarible/RoyaltiesV2.sol\";\n\ncontract imnotArtAccess is Ownable, ERC721Enumerable, RoyaltiesV2 {\n    using SafeMath for uint256;\n\n    // ---\n    // Constants\n    // ---\n    bytes4 private constant _INTERFACE_ID_ERC165 = 0x01ffc9a7;\n    bytes4 private constant _INTERFACE_ID_ERC721 = 0x80ac58cd;\n    bytes4 private constant _INTERFACE_ID_ERC721_METADATA = 0x5b5e139f;\n    bytes4 private constant _INTERFACE_ID_ERC721_ENUMERABLE = 0x780e9d63;\n    bytes4 private constant _INTERFACE_ID_EIP2981 = 0x2a55205a;\n    uint16 constant public imnotArtSecondarySaleBps = 500; // 5% of Secondary Sale\n\n    // ---\n    // Properties\n    // ---\n    uint256 public nextTokenId = 1;\n    address public imnotArtPayoutAddress;\n    string private contractUri;\n\n    // ---\n    // Events\n    // ---\n    event PermanentURI(string _value, uint256 indexed _id); // OpenSea Freezing Metadata\n\n    // ---\n    // Security\n    // ---\n    mapping(address => bool) private _isAdmin;\n\n    modifier onlyAdmin() {\n        require(_isAdmin[msg.sender], \"Only admins.\");\n        _;\n    }\n\n    modifier onlyValidContractAddress(address contractAddress) {\n        require(validContractAddresses[contractAddress], \"Only valid contract addresses.\");\n        _;\n    }\n\n    modifier onlyValidTokenId(uint256 tokenId) {\n        require(_exists(tokenId), \"Token ID does not exist.\");\n        _;\n    }\n\n    // ---\n    // Mappings\n    // ---\n    mapping(address => bool) private validContractAddresses;\n    mapping(address => uint256[]) private validTokenIdsByContract;\n    mapping(address => mapping(uint256 => address)) private contractToTokenToClaimedAddress;\n\n    // ---\n    // Constructor\n    // ---\n    constructor() ERC721(\"imnotArt Access\", \"\") {\n        _isAdmin[msg.sender] = true;\n\n        // imnotArt Mainnet Gnosis Safe\n        _isAdmin[address(0x12b66baFc99D351f7e24874B3e52B1889641D3f3)] = true;\n        imnotArtPayoutAddress = address(0x12b66baFc99D351f7e24874B3e52B1889641D3f3);\n        contractUri = \"\";\n    }\n\n    // ---\n    // Supported Interfaces\n    // ---\n    function supportsInterface(bytes4 interfaceId) public view virtual override returns (bool) {\n        return interfaceId == _INTERFACE_ID_ERC165\n        || interfaceId == LibRoyaltiesV2._INTERFACE_ID_ROYALTIES\n        || interfaceId == _INTERFACE_ID_ERC721\n        || interfaceId == _INTERFACE_ID_ERC721_METADATA\n        || interfaceId == _INTERFACE_ID_ERC721_ENUMERABLE\n        || interfaceId == _INTERFACE_ID_EIP2981\n        || super.supportsInterface(interfaceId);\n    }\n\n    // ---\n    // Minting\n    // ---\n    function mint(address contractAddress, uint256 tokenId) public onlyValidContractAddress(contractAddress) returns (uint256 accessPassId) {\n        // @TODO(Check if the tokenId for the Contract has already been claimed)\n        if (contractToTokenToClaimedAddress[contractAddress][tokenId] != address(0x0)) {\n            \n        }\n\n        // if not claimed check the contract address for owner\n        // @TODO(Check the contractAddress for ownerOf(tokenId))\n        // if msg.sender == owner, then mint and save mappings\n        accessPassId = nextTokenId;\n        nextTokenId = nextTokenId.add(1);\n\n        contractToTokenToClaimedAddress[contractAddress][tokenId] = msg.sender;\n    }\n\n    // ---\n    // Contract Gets\n    // ---\n    function getValidTokenIdsForContract(address contractAddress) public view onlyValidContractAddress(contractAddress) returns (uint256[] memory) {\n        return validTokenIdsByContract[contractAddress];\n    }\n\n    function hasTokenByClaimed(address contractAddress, uint256 tokenId) public view onlyValidContractAddress(contractAddress) returns (bool) {\n        return (contractToTokenToClaimedAddress[contractAddress][tokenId] != address(0x0));\n    }\n\n    // ---\n    // Contract Updates\n    // ---\n    function addValidContractAddress(address validContractAddress) public onlyAdmin {\n        validContractAddresses[validContractAddress] = true;\n    }\n\n    function addValidTokenId(address contractAddress, uint256 tokenId) public onlyAdmin onlyValidContractAddress(contractAddress) {\n        bool tokenIdAlreadyAdded = false;\n        uint256[] storage validTokenIds = validTokenIdsByContract[contractAddress];\n        \n        uint256 index;\n        for (index = 0; index < validTokenIds.length; index++) {\n            uint256 validTokenId = validTokenIds[index];\n            if (validTokenId == tokenId) {\n                tokenIdAlreadyAdded = true;\n            }\n        }\n\n        if (!tokenIdAlreadyAdded) {\n            validTokenIds.push(tokenId);\n        }\n    }\n\n    // ---\n    // Secondary Marketplace Functions\n    // ---\n\n    /* OpenSea */\n    function contractURI() public view virtual returns (string memory) {\n        return contractUri;\n    }\n\n    /* Rarible Royalties V2 */\n    function getRaribleV2Royalties(uint256 tokenId) external view override onlyValidTokenId(tokenId) returns (LibPart.Part[] memory) {\n        LibPart.Part[] memory royalties = new LibPart.Part[](1);\n\n        royalties[1] = LibPart.Part({\n            account: payable(imnotArtPayoutAddress),\n            value: uint96(imnotArtSecondarySaleBps)\n        });\n\n        return royalties;\n    }\n\n    /* EIP-2981 - https://eips.ethereum.org/EIPS/eip-2981 */\n    function royaltyInfo(uint256 tokenId, uint256 salePrice) external view onlyValidTokenId(tokenId) returns (address receiver, uint256 amount) {\n        uint256 royaltyAmount = SafeMath.div(SafeMath.mul(salePrice, imnotArtSecondarySaleBps), 10000);\n        return (imnotArtPayoutAddress, royaltyAmount);\n    }\n}",
  "sourcePath": "/Users/ianolson/code/imnotart-access/contracts/imnotArtAccess.sol",
  "compiler": {
    "name": "solc",
    "version": "0.8.4+commit.c7e474f2.Emscripten.clang"
  },
  "schemaVersion": "3.3.4",
  "updatedAt": "2021-08-19T02:06:01.244Z",
  "networkType": "ethereum",
  "devdoc": {
    "kind": "dev",
    "methods": {
      "approve(address,uint256)": {
        "details": "See {IERC721-approve}."
      },
      "balanceOf(address)": {
        "details": "See {IERC721-balanceOf}."
      },
      "getApproved(uint256)": {
        "details": "See {IERC721-getApproved}."
      },
      "isApprovedForAll(address,address)": {
        "details": "See {IERC721-isApprovedForAll}."
      },
      "name()": {
        "details": "See {IERC721Metadata-name}."
      },
      "owner()": {
        "details": "Returns the address of the current owner."
      },
      "ownerOf(uint256)": {
        "details": "See {IERC721-ownerOf}."
      },
      "renounceOwnership()": {
        "details": "Leaves the contract without owner. It will not be possible to call `onlyOwner` functions anymore. Can only be called by the current owner. NOTE: Renouncing ownership will leave the contract without an owner, thereby removing any functionality that is only available to the owner."
      },
      "safeTransferFrom(address,address,uint256)": {
        "details": "See {IERC721-safeTransferFrom}."
      },
      "safeTransferFrom(address,address,uint256,bytes)": {
        "details": "See {IERC721-safeTransferFrom}."
      },
      "setApprovalForAll(address,bool)": {
        "details": "See {IERC721-setApprovalForAll}."
      },
      "supportsInterface(bytes4)": {
        "details": "See {IERC165-supportsInterface}."
      },
      "symbol()": {
        "details": "See {IERC721Metadata-symbol}."
      },
      "tokenByIndex(uint256)": {
        "details": "See {IERC721Enumerable-tokenByIndex}."
      },
      "tokenOfOwnerByIndex(address,uint256)": {
        "details": "See {IERC721Enumerable-tokenOfOwnerByIndex}."
      },
      "tokenURI(uint256)": {
        "details": "See {IERC721Metadata-tokenURI}."
      },
      "totalSupply()": {
        "details": "See {IERC721Enumerable-totalSupply}."
      },
      "transferFrom(address,address,uint256)": {
        "details": "See {IERC721-transferFrom}."
      },
      "transferOwnership(address)": {
        "details": "Transfers ownership of the contract to a new account (`newOwner`). Can only be called by the current owner."
      }
    },
    "version": 1
  },
  "userdoc": {
    "kind": "user",
    "methods": {},
    "version": 1
  }
}