{
  "contractName": "LibPart",
  "abi": [
    {
      "inputs": [],
      "name": "TYPE_HASH",
      "outputs": [
        {
          "internalType": "bytes32",
          "name": "",
          "type": "bytes32"
        }
      ],
      "stateMutability": "view",
      "type": "function"
    }
  ],
  "bytecode": "0x60c2610052600b82828239805160001a607314610045577f4e487b7100000000000000000000000000000000000000000000000000000000600052600060045260246000fd5b30600052607381538281f3fe7300000000000000000000000000000000000000003014608060405260043610604f577c0100000000000000000000000000000000000000000000000000000000600035046364d4c81981146054575b600080fd5b607a7f397e04204c1e1a60ee8724b71f8244e10ab5f2e9009854d80f602bda21b59ebb81565b60405190815260200160405180910390f3fea2646970667358221220f42b2e1d60cd0724c7b3543e66ddced5df4e609bc5068f20fc2e1d96bd618afb64736f6c63430008040033",
  "immutableReferences": {},
  "source": "// SPDX-License-Identifier: MIT\n\npragma solidity ^0.8.4;\n\nlibrary LibPart {\n    bytes32 public constant TYPE_HASH = keccak256(\"Part(address account,uint96 value)\");\n\n    struct Part {\n        address payable account;\n        uint96 value;\n    }\n\n    function hash(Part memory part) internal pure returns (bytes32) {\n        return keccak256(abi.encode(TYPE_HASH, part.account, part.value));\n    }\n}\n",
  "sourcePath": "/Users/ianolson/code/imnotart-access/contracts/rarible/library/LibPart.sol",
  "compiler": {
    "name": "solc",
    "version": "0.8.4+commit.c7e474f2.Emscripten.clang"
  },
  "schemaVersion": "3.3.4",
  "updatedAt": "2021-08-19T01:48:53.046Z",
  "devdoc": {
    "kind": "dev",
    "methods": {},
    "version": 1
  },
  "userdoc": {
    "kind": "user",
    "methods": {},
    "version": 1
  }
}