{
  "contractName": "mockErc721",
  "abi": [
    {
      "inputs": [],
      "stateMutability": "nonpayable",
      "type": "constructor"
    },
    {
      "anonymous": false,
      "inputs": [
        {
          "indexed": true,
          "internalType": "address",
          "name": "owner",
          "type": "address"
        },
        {
          "indexed": true,
          "internalType": "address",
          "name": "approved",
          "type": "address"
        },
        {
          "indexed": true,
          "internalType": "uint256",
          "name": "tokenId",
          "type": "uint256"
        }
      ],
      "name": "Approval",
      "type": "event"
    },
    {
      "anonymous": false,
      "inputs": [
        {
          "indexed": true,
          "internalType": "address",
          "name": "owner",
          "type": "address"
        },
        {
          "indexed": true,
          "internalType": "address",
          "name": "operator",
          "type": "address"
        },
        {
          "indexed": false,
          "internalType": "bool",
          "name": "approved",
          "type": "bool"
        }
      ],
      "name": "ApprovalForAll",
      "type": "event"
    },
    {
      "anonymous": false,
      "inputs": [
        {
          "indexed": true,
          "internalType": "address",
          "name": "previousOwner",
          "type": "address"
        },
        {
          "indexed": true,
          "internalType": "address",
          "name": "newOwner",
          "type": "address"
        }
      ],
      "name": "OwnershipTransferred",
      "type": "event"
    },
    {
      "anonymous": false,
      "inputs": [
        {
          "indexed": true,
          "internalType": "address",
          "name": "from",
          "type": "address"
        },
        {
          "indexed": true,
          "internalType": "address",
          "name": "to",
          "type": "address"
        },
        {
          "indexed": true,
          "internalType": "uint256",
          "name": "tokenId",
          "type": "uint256"
        }
      ],
      "name": "Transfer",
      "type": "event"
    },
    {
      "inputs": [
        {
          "internalType": "address",
          "name": "to",
          "type": "address"
        },
        {
          "internalType": "uint256",
          "name": "tokenId",
          "type": "uint256"
        }
      ],
      "name": "approve",
      "outputs": [],
      "stateMutability": "nonpayable",
      "type": "function"
    },
    {
      "inputs": [
        {
          "internalType": "address",
          "name": "owner",
          "type": "address"
        }
      ],
      "name": "balanceOf",
      "outputs": [
        {
          "internalType": "uint256",
          "name": "",
          "type": "uint256"
        }
      ],
      "stateMutability": "view",
      "type": "function",
      "constant": true
    },
    {
      "inputs": [
        {
          "internalType": "uint256",
          "name": "tokenId",
          "type": "uint256"
        }
      ],
      "name": "getApproved",
      "outputs": [
        {
          "internalType": "address",
          "name": "",
          "type": "address"
        }
      ],
      "stateMutability": "view",
      "type": "function",
      "constant": true
    },
    {
      "inputs": [
        {
          "internalType": "address",
          "name": "owner",
          "type": "address"
        },
        {
          "internalType": "address",
          "name": "operator",
          "type": "address"
        }
      ],
      "name": "isApprovedForAll",
      "outputs": [
        {
          "internalType": "bool",
          "name": "",
          "type": "bool"
        }
      ],
      "stateMutability": "view",
      "type": "function",
      "constant": true
    },
    {
      "inputs": [],
      "name": "name",
      "outputs": [
        {
          "internalType": "string",
          "name": "",
          "type": "string"
        }
      ],
      "stateMutability": "view",
      "type": "function",
      "constant": true
    },
    {
      "inputs": [],
      "name": "nextTokenId",
      "outputs": [
        {
          "internalType": "uint256",
          "name": "",
          "type": "uint256"
        }
      ],
      "stateMutability": "view",
      "type": "function",
      "constant": true
    },
    {
      "inputs": [],
      "name": "owner",
      "outputs": [
        {
          "internalType": "address",
          "name": "",
          "type": "address"
        }
      ],
      "stateMutability": "view",
      "type": "function",
      "constant": true
    },
    {
      "inputs": [
        {
          "internalType": "uint256",
          "name": "tokenId",
          "type": "uint256"
        }
      ],
      "name": "ownerOf",
      "outputs": [
        {
          "internalType": "address",
          "name": "",
          "type": "address"
        }
      ],
      "stateMutability": "view",
      "type": "function",
      "constant": true
    },
    {
      "inputs": [],
      "name": "renounceOwnership",
      "outputs": [],
      "stateMutability": "nonpayable",
      "type": "function"
    },
    {
      "inputs": [
        {
          "internalType": "address",
          "name": "from",
          "type": "address"
        },
        {
          "internalType": "address",
          "name": "to",
          "type": "address"
        },
        {
          "internalType": "uint256",
          "name": "tokenId",
          "type": "uint256"
        }
      ],
      "name": "safeTransferFrom",
      "outputs": [],
      "stateMutability": "nonpayable",
      "type": "function"
    },
    {
      "inputs": [
        {
          "internalType": "address",
          "name": "from",
          "type": "address"
        },
        {
          "internalType": "address",
          "name": "to",
          "type": "address"
        },
        {
          "internalType": "uint256",
          "name": "tokenId",
          "type": "uint256"
        },
        {
          "internalType": "bytes",
          "name": "_data",
          "type": "bytes"
        }
      ],
      "name": "safeTransferFrom",
      "outputs": [],
      "stateMutability": "nonpayable",
      "type": "function"
    },
    {
      "inputs": [
        {
          "internalType": "address",
          "name": "operator",
          "type": "address"
        },
        {
          "internalType": "bool",
          "name": "approved",
          "type": "bool"
        }
      ],
      "name": "setApprovalForAll",
      "outputs": [],
      "stateMutability": "nonpayable",
      "type": "function"
    },
    {
      "inputs": [
        {
          "internalType": "bytes4",
          "name": "interfaceId",
          "type": "bytes4"
        }
      ],
      "name": "supportsInterface",
      "outputs": [
        {
          "internalType": "bool",
          "name": "",
          "type": "bool"
        }
      ],
      "stateMutability": "view",
      "type": "function",
      "constant": true
    },
    {
      "inputs": [],
      "name": "symbol",
      "outputs": [
        {
          "internalType": "string",
          "name": "",
          "type": "string"
        }
      ],
      "stateMutability": "view",
      "type": "function",
      "constant": true
    },
    {
      "inputs": [
        {
          "internalType": "uint256",
          "name": "index",
          "type": "uint256"
        }
      ],
      "name": "tokenByIndex",
      "outputs": [
        {
          "internalType": "uint256",
          "name": "",
          "type": "uint256"
        }
      ],
      "stateMutability": "view",
      "type": "function",
      "constant": true
    },
    {
      "inputs": [
        {
          "internalType": "address",
          "name": "owner",
          "type": "address"
        },
        {
          "internalType": "uint256",
          "name": "index",
          "type": "uint256"
        }
      ],
      "name": "tokenOfOwnerByIndex",
      "outputs": [
        {
          "internalType": "uint256",
          "name": "",
          "type": "uint256"
        }
      ],
      "stateMutability": "view",
      "type": "function",
      "constant": true
    },
    {
      "inputs": [
        {
          "internalType": "uint256",
          "name": "tokenId",
          "type": "uint256"
        }
      ],
      "name": "tokenURI",
      "outputs": [
        {
          "internalType": "string",
          "name": "",
          "type": "string"
        }
      ],
      "stateMutability": "view",
      "type": "function",
      "constant": true
    },
    {
      "inputs": [],
      "name": "totalSupply",
      "outputs": [
        {
          "internalType": "uint256",
          "name": "",
          "type": "uint256"
        }
      ],
      "stateMutability": "view",
      "type": "function",
      "constant": true
    },
    {
      "inputs": [
        {
          "internalType": "address",
          "name": "from",
          "type": "address"
        },
        {
          "internalType": "address",
          "name": "to",
          "type": "address"
        },
        {
          "internalType": "uint256",
          "name": "tokenId",
          "type": "uint256"
        }
      ],
      "name": "transferFrom",
      "outputs": [],
      "stateMutability": "nonpayable",
      "type": "function"
    },
    {
      "inputs": [
        {
          "internalType": "address",
          "name": "newOwner",
          "type": "address"
        }
      ],
      "name": "transferOwnership",
      "outputs": [],
      "stateMutability": "nonpayable",
      "type": "function"
    },
    {
      "inputs": [],
      "name": "mint",
      "outputs": [
        {
          "internalType": "uint256",
          "name": "tokenId",
          "type": "uint256"
        }
      ],
      "stateMutability": "nonpayable",
      "type": "function"
    }
  ],
  "bytecode": "0x60806040526001600b553480156200001657600080fd5b506040518060400160405280601381526020017f6d6f636b45726337323120436f6e7472616374000000000000000000000000008152506040518060400160405280600481526020017f4d4f434b00000000000000000000000000000000000000000000000000000000815250620000af620000a0620000fd640100000000026401000000009004565b64010000000062000101810204565b8151620000c490600190602085019062000151565b508051620000da90600290602084019062000151565b5050336000908152600c60205260409020805460ff19166001179055506200024d565b3390565b60008054600160a060020a03838116600160a060020a0319831681178455604051919092169283917f8be0079c531659141344cd1fd0a4f28419497f9722a3daafe3b4186f6b6457e09190a35050565b8280546200015f90620001f7565b90600052602060002090601f016020900481019282620001835760008555620001ce565b82601f106200019e57805160ff1916838001178555620001ce565b82800160010185558215620001ce579182015b82811115620001ce578251825591602001919060010190620001b1565b50620001dc929150620001e0565b5090565b5b80821115620001dc5760008155600101620001e1565b6002810460018216806200020c57607f821691505b6020821081141562000247577f4e487b7100000000000000000000000000000000000000000000000000000000600052602260045260246000fd5b50919050565b611ccc806200025d6000396000f3fe608060405234801561001057600080fd5b5060043610610154576000357c0100000000000000000000000000000000000000000000000000000000900480636352211e116100d557806395d89b411161009957806395d89b4114610288578063a22cb46514610290578063b88d4fde146102a3578063c87b56dd146102b6578063e985e9c5146102c9578063f2fde38b1461030557600080fd5b80636352211e1461024057806370a0823114610253578063715018a61461026657806375794a3c1461026e5780638da5cb5b1461027757600080fd5b806318160ddd1161011c57806318160ddd146101ec57806323b872dd146101f45780632f745c591461020757806342842e0e1461021a5780634f6ccce71461022d57600080fd5b806301ffc9a71461015957806306fdde0314610181578063081812fc14610196578063095ea7b3146101c15780631249c58b146101d6575b600080fd5b61016c6101673660046119a5565b610318565b60405190151581526020015b60405180910390f35b61018961035c565b6040516101789190611a8c565b6101a96101a43660046119dd565b6103ee565b604051600160a060020a039091168152602001610178565b6101d46101cf36600461197c565b61049c565b005b6101de6105d4565b604051908152602001610178565b6009546101de565b6101d4610202366004611832565b610655565b6101de61021536600461197c565b610689565b6101d4610228366004611832565b610734565b6101de61023b3660046119dd565b61074f565b6101a961024e3660046119dd565b610807565b6101de6102613660046117e6565b610895565b6101d4610932565b6101de600b5481565b600054600160a060020a03166101a9565b61018961099b565b6101d461029e366004611942565b6109aa565b6101d46102b136600461186d565b610a72565b6101896102c43660046119dd565b610aad565b61016c6102d7366004611800565b600160a060020a03918216600090815260066020908152604080832093909416825291909152205460ff1690565b6101d46103133660046117e6565b610ba6565b6000600160e060020a031982167f780e9d63000000000000000000000000000000000000000000000000000000001480610356575061035682610c8e565b92915050565b60606001805461036b90611bc8565b80601f016020809104026020016040519081016040528092919081815260200182805461039790611bc8565b80156103e45780601f106103b9576101008083540402835291602001916103e4565b820191906000526020600020905b8154815290600101906020018083116103c757829003601f168201915b5050505050905090565b600081815260036020526040812054600160a060020a03166104805760405160e560020a62461bcd02815260206004820152602c60248201527f4552433732313a20617070726f76656420717565727920666f72206e6f6e657860448201527f697374656e7420746f6b656e000000000000000000000000000000000000000060648201526084015b60405180910390fd5b50600090815260056020526040902054600160a060020a031690565b60006104a782610807565b905080600160a060020a031683600160a060020a031614156105345760405160e560020a62461bcd02815260206004820152602160248201527f4552433732313a20617070726f76616c20746f2063757272656e74206f776e6560448201527f72000000000000000000000000000000000000000000000000000000000000006064820152608401610477565b33600160a060020a0382161480610550575061055081336102d7565b6105c55760405160e560020a62461bcd02815260206004820152603860248201527f4552433732313a20617070726f76652063616c6c6572206973206e6f74206f7760448201527f6e6572206e6f7220617070726f76656420666f7220616c6c00000000000000006064820152608401610477565b6105cf8383610d29565b505050565b336000908152600c602052604081205460ff166106365760405160e560020a62461bcd02815260206004820152600c60248201527f4f6e6c792061646d696e732e00000000000000000000000000000000000000006044820152606401610477565b50600b54610645816001610da4565b600b556106523382610db0565b90565b61065f3382610f11565b61067e5760405160e560020a62461bcd02815260040161047790611afc565b6105cf83838361101c565b600061069483610895565b821061070b5760405160e560020a62461bcd02815260206004820152602b60248201527f455243373231456e756d657261626c653a206f776e657220696e646578206f7560448201527f74206f6620626f756e64730000000000000000000000000000000000000000006064820152608401610477565b50600160a060020a03919091166000908152600760209081526040808320938352929052205490565b6105cf83838360405180602001604052806000815250610a72565b600061075a60095490565b82106107d15760405160e560020a62461bcd02815260206004820152602c60248201527f455243373231456e756d657261626c653a20676c6f62616c20696e646578206f60448201527f7574206f6620626f756e647300000000000000000000000000000000000000006064820152608401610477565b600982815481106107f55760e060020a634e487b7102600052603260045260246000fd5b90600052602060002001549050919050565b600081815260036020526040812054600160a060020a0316806103565760405160e560020a62461bcd02815260206004820152602960248201527f4552433732313a206f776e657220717565727920666f72206e6f6e657869737460448201527f656e7420746f6b656e00000000000000000000000000000000000000000000006064820152608401610477565b6000600160a060020a0382166109165760405160e560020a62461bcd02815260206004820152602a60248201527f4552433732313a2062616c616e636520717565727920666f7220746865207a6560448201527f726f2061646472657373000000000000000000000000000000000000000000006064820152608401610477565b50600160a060020a031660009081526004602052604090205490565b600054600160a060020a0316331461098f5760405160e560020a62461bcd02815260206004820181905260248201527f4f776e61626c653a2063616c6c6572206973206e6f7420746865206f776e65726044820152606401610477565b6109996000611207565b565b60606002805461036b90611bc8565b600160a060020a038216331415610a065760405160e560020a62461bcd02815260206004820152601960248201527f4552433732313a20617070726f766520746f2063616c6c6572000000000000006044820152606401610477565b336000818152600660209081526040808320600160a060020a03871680855290835292819020805460ff191686151590811790915590519081529192917f17307eab39ab6107e8899845ad3d59bd9653f200f220920489ca2b5937696c31910160405180910390a35050565b610a7c3383610f11565b610a9b5760405160e560020a62461bcd02815260040161047790611afc565b610aa784848484611264565b50505050565b600081815260036020526040902054606090600160a060020a0316610b3d5760405160e560020a62461bcd02815260206004820152602f60248201527f4552433732314d657461646174613a2055524920717565727920666f72206e6f60448201527f6e6578697374656e7420746f6b656e00000000000000000000000000000000006064820152608401610477565b6000610b5460408051602081019091526000815290565b90506000815111610b745760405180602001604052806000815250610b9f565b80610b7e8461129a565b604051602001610b8f929190611a21565b6040516020818303038152906040525b9392505050565b600054600160a060020a03163314610c035760405160e560020a62461bcd02815260206004820181905260248201527f4f776e61626c653a2063616c6c6572206973206e6f7420746865206f776e65726044820152606401610477565b600160a060020a038116610c825760405160e560020a62461bcd02815260206004820152602660248201527f4f776e61626c653a206e6577206f776e657220697320746865207a65726f206160448201527f64647265737300000000000000000000000000000000000000000000000000006064820152608401610477565b610c8b81611207565b50565b6000600160e060020a031982167f80ac58cd000000000000000000000000000000000000000000000000000000001480610cf15750600160e060020a031982167f5b5e139f00000000000000000000000000000000000000000000000000000000145b8061035657507f01ffc9a700000000000000000000000000000000000000000000000000000000600160e060020a0319831614610356565b6000818152600560205260409020805473ffffffffffffffffffffffffffffffffffffffff1916600160a060020a0384169081179091558190610d6b82610807565b600160a060020a03167f8c5be1e5ebec7d5bd14f71427d1e84f3dd0314c0f7b2291e5b200ac8c7c3b92560405160405180910390a45050565b6000610b9f8284611b59565b600160a060020a038216610e095760405160e560020a62461bcd02815260206004820181905260248201527f4552433732313a206d696e7420746f20746865207a65726f20616464726573736044820152606401610477565b600081815260036020526040902054600160a060020a031615610e715760405160e560020a62461bcd02815260206004820152601c60248201527f4552433732313a20746f6b656e20616c7265616479206d696e746564000000006044820152606401610477565b610e7d6000838361140d565b600160a060020a0382166000908152600460205260408120805460019290610ea6908490611b59565b9091555050600081815260036020526040808220805473ffffffffffffffffffffffffffffffffffffffff1916600160a060020a03861690811790915590518392907fddf252ad1be2c89b69c2b068fc378daa952ba7f163c4a11628f55a4df523b3ef908290a45050565b600081815260036020526040812054600160a060020a0316610f9e5760405160e560020a62461bcd02815260206004820152602c60248201527f4552433732313a206f70657261746f7220717565727920666f72206e6f6e657860448201527f697374656e7420746f6b656e00000000000000000000000000000000000000006064820152608401610477565b6000610fa983610807565b905080600160a060020a031684600160a060020a03161480610fe4575083600160a060020a0316610fd9846103ee565b600160a060020a0316145b806110145750600160a060020a0380821660009081526006602090815260408083209388168352929052205460ff165b949350505050565b82600160a060020a031661102f82610807565b600160a060020a0316146110ae5760405160e560020a62461bcd02815260206004820152602960248201527f4552433732313a207472616e73666572206f6620746f6b656e2074686174206960448201527f73206e6f74206f776e00000000000000000000000000000000000000000000006064820152608401610477565b600160a060020a03821661112c5760405160e560020a62461bcd028152602060048201526024808201527f4552433732313a207472616e7366657220746f20746865207a65726f2061646460448201527f72657373000000000000000000000000000000000000000000000000000000006064820152608401610477565b61113783838361140d565b611142600082610d29565b600160a060020a038316600090815260046020526040812080546001929061116b908490611b85565b9091555050600160a060020a0382166000908152600460205260408120805460019290611199908490611b59565b9091555050600081815260036020526040808220805473ffffffffffffffffffffffffffffffffffffffff1916600160a060020a0386811691821790925591518493918716917fddf252ad1be2c89b69c2b068fc378daa952ba7f163c4a11628f55a4df523b3ef91a4505050565b60008054600160a060020a0383811673ffffffffffffffffffffffffffffffffffffffff19831681178455604051919092169283917f8be0079c531659141344cd1fd0a4f28419497f9722a3daafe3b4186f6b6457e09190a35050565b61126f84848461101c565b61127b848484846114c5565b610aa75760405160e560020a62461bcd02815260040161047790611a9f565b6060816112da57505060408051808201909152600181527f3000000000000000000000000000000000000000000000000000000000000000602082015290565b8160005b811561130457806112ee81611c06565b91506112fd9050600a83611b71565b91506112de565b60008167ffffffffffffffff8111156113305760e060020a634e487b7102600052604160045260246000fd5b6040519080825280601f01601f19166020018201604052801561135a576020820181803683370190505b5090505b84156110145761136f600183611b85565b915061137c600a86611c21565b611387906030611b59565b7f0100000000000000000000000000000000000000000000000000000000000000028183815181106113cc5760e060020a634e487b7102600052603260045260246000fd5b60200101907effffffffffffffffffffffffffffffffffffffffffffffffffffffffffffff1916908160001a905350611406600a86611b71565b945061135e565b600160a060020a0383166114685761146381600980546000838152600a60205260408120829055600182018355919091527f6e1540171b6c0c960b71a7020d9f60077f6af931a8bbf590da0223dacf75c7af0155565b61148b565b81600160a060020a031683600160a060020a03161461148b5761148b8382611607565b600160a060020a0382166114a2576105cf816116a4565b82600160a060020a031682600160a060020a0316146105cf576105cf8282611786565b6000600160a060020a0384163b156115fc576040517f150b7a02000000000000000000000000000000000000000000000000000000008152600160a060020a0385169063150b7a0290611522903390899088908890600401611a50565b602060405180830381600087803b15801561153c57600080fd5b505af192505050801561156c575060408051601f3d908101601f19168201909252611569918101906119c1565b60015b6115c9573d80801561159a576040519150601f19603f3d011682016040523d82523d6000602084013e61159f565b606091505b5080516115c15760405160e560020a62461bcd02815260040161047790611a9f565b805181602001fd5b600160e060020a0319167f150b7a0200000000000000000000000000000000000000000000000000000000149050611014565b506001949350505050565b6000600161161484610895565b61161e9190611b85565b60008381526008602052604090205490915080821461167157600160a060020a03841660009081526007602090815260408083208584528252808320548484528184208190558352600890915290208190555b506000918252600860209081526040808420849055600160a060020a039094168352600781528383209183525290812055565b6009546000906116b690600190611b85565b6000838152600a6020526040812054600980549394509092849081106116ef5760e060020a634e487b7102600052603260045260246000fd5b9060005260206000200154905080600983815481106117215760e060020a634e487b7102600052603260045260246000fd5b6000918252602080832090910192909255828152600a9091526040808220849055858252812055600980548061176a5760e060020a634e487b7102600052603160045260246000fd5b6001900381819060005260206000200160009055905550505050565b600061179183610895565b600160a060020a039093166000908152600760209081526040808320868452825280832085905593825260089052919091209190915550565b8035600160a060020a03811681146117e157600080fd5b919050565b6000602082840312156117f7578081fd5b610b9f826117ca565b60008060408385031215611812578081fd5b61181b836117ca565b9150611829602084016117ca565b90509250929050565b600080600060608486031215611846578081fd5b61184f846117ca565b925061185d602085016117ca565b9150604084013590509250925092565b60008060008060808587031215611882578081fd5b61188b856117ca565b9350611899602086016117ca565b925060408501359150606085013567ffffffffffffffff808211156118bc578283fd5b818701915087601f8301126118cf578283fd5b8135818111156118e1576118e1611c67565b604051601f8201601f19908116603f0116810190838211818310171561190957611909611c67565b816040528281528a6020848701011115611921578586fd5b82602086016020830137918201602001949094529598949750929550505050565b60008060408385031215611954578182fd5b61195d836117ca565b915060208301358015158114611971578182fd5b809150509250929050565b6000806040838503121561198e578182fd5b611997836117ca565b946020939093013593505050565b6000602082840312156119b6578081fd5b8135610b9f81611c80565b6000602082840312156119d2578081fd5b8151610b9f81611c80565b6000602082840312156119ee578081fd5b5035919050565b60008151808452611a0d816020860160208601611b9c565b601f01601f19169290920160200192915050565b60008351611a33818460208801611b9c565b835190830190611a47818360208801611b9c565b01949350505050565b6000600160a060020a03808716835280861660208401525083604083015260806060830152611a8260808301846119f5565b9695505050505050565b602081526000610b9f60208301846119f5565b60208082526032908201527f4552433732313a207472616e7366657220746f206e6f6e20455243373231526560408201527f63656976657220696d706c656d656e7465720000000000000000000000000000606082015260800190565b60208082526031908201527f4552433732313a207472616e736665722063616c6c6572206973206e6f74206f60408201527f776e6572206e6f7220617070726f766564000000000000000000000000000000606082015260800190565b60008219821115611b6c57611b6c611c35565b500190565b600082611b8057611b80611c4e565b500490565b600082821015611b9757611b97611c35565b500390565b60005b83811015611bb7578181015183820152602001611b9f565b83811115610aa75750506000910152565b600281046001821680611bdc57607f821691505b60208210811415611c005760e060020a634e487b7102600052602260045260246000fd5b50919050565b6000600019821415611c1a57611c1a611c35565b5060010190565b600082611c3057611c30611c4e565b500690565b60e060020a634e487b7102600052601160045260246000fd5b60e060020a634e487b7102600052601260045260246000fd5b60e060020a634e487b7102600052604160045260246000fd5b600160e060020a031981168114610c8b57600080fdfea26469706673582212201f856a4c91de8fb7911d25ea24dbe3bbb7fc6177969555486ceeb68198bea51664736f6c63430008040033",
  "immutableReferences": {},
  "source": "// SPDX-License-Identifier: MIT\n\npragma solidity ^0.8.4;\n\nimport \"@openzeppelin/contracts/access/Ownable.sol\";\nimport \"@openzeppelin/contracts/token/ERC721/extensions/ERC721Enumerable.sol\";\nimport \"@openzeppelin/contracts/utils/math/SafeMath.sol\";\n\ncontract mockErc721 is Ownable, ERC721Enumerable {\n    using SafeMath for uint256;\n\n    // ---\n    // Properties\n    // ---\n    uint256 public nextTokenId = 1;\n\n    // ---\n    // Security\n    // ---\n    mapping(address => bool) private _isAdmin;\n\n    modifier onlyAdmin() {\n        require(_isAdmin[msg.sender], \"Only admins.\");\n        _;\n    }\n\n    // ---\n    // Constructor\n    // ---\n    constructor() ERC721(\"mockErc721 Contract\", \"MOCK\") {\n        _isAdmin[msg.sender] = true;\n    }\n\n    // ---\n    // Minting\n    // ---\n    function mint() public onlyAdmin returns (uint256 tokenId) {\n        tokenId = nextTokenId;\n        nextTokenId = nextTokenId.add(1);\n\n        _mint(msg.sender, tokenId);\n    }\n}",
  "sourcePath": "/Users/ianolson/code/imnotart-access/contracts/mockErc721.sol",
  "compiler": {
    "name": "solc",
    "version": "0.8.4+commit.c7e474f2.Emscripten.clang"
  },
  "schemaVersion": "3.3.4",
  "updatedAt": "2021-08-19T02:06:01.249Z",
  "networkType": "ethereum",
  "devdoc": {
    "kind": "dev",
    "methods": {
      "approve(address,uint256)": {
        "details": "See {IERC721-approve}."
      },
      "balanceOf(address)": {
        "details": "See {IERC721-balanceOf}."
      },
      "getApproved(uint256)": {
        "details": "See {IERC721-getApproved}."
      },
      "isApprovedForAll(address,address)": {
        "details": "See {IERC721-isApprovedForAll}."
      },
      "name()": {
        "details": "See {IERC721Metadata-name}."
      },
      "owner()": {
        "details": "Returns the address of the current owner."
      },
      "ownerOf(uint256)": {
        "details": "See {IERC721-ownerOf}."
      },
      "renounceOwnership()": {
        "details": "Leaves the contract without owner. It will not be possible to call `onlyOwner` functions anymore. Can only be called by the current owner. NOTE: Renouncing ownership will leave the contract without an owner, thereby removing any functionality that is only available to the owner."
      },
      "safeTransferFrom(address,address,uint256)": {
        "details": "See {IERC721-safeTransferFrom}."
      },
      "safeTransferFrom(address,address,uint256,bytes)": {
        "details": "See {IERC721-safeTransferFrom}."
      },
      "setApprovalForAll(address,bool)": {
        "details": "See {IERC721-setApprovalForAll}."
      },
      "supportsInterface(bytes4)": {
        "details": "See {IERC165-supportsInterface}."
      },
      "symbol()": {
        "details": "See {IERC721Metadata-symbol}."
      },
      "tokenByIndex(uint256)": {
        "details": "See {IERC721Enumerable-tokenByIndex}."
      },
      "tokenOfOwnerByIndex(address,uint256)": {
        "details": "See {IERC721Enumerable-tokenOfOwnerByIndex}."
      },
      "tokenURI(uint256)": {
        "details": "See {IERC721Metadata-tokenURI}."
      },
      "totalSupply()": {
        "details": "See {IERC721Enumerable-totalSupply}."
      },
      "transferFrom(address,address,uint256)": {
        "details": "See {IERC721-transferFrom}."
      },
      "transferOwnership(address)": {
        "details": "Transfers ownership of the contract to a new account (`newOwner`). Can only be called by the current owner."
      }
    },
    "version": 1
  },
  "userdoc": {
    "kind": "user",
    "methods": {},
    "version": 1
  }
}